:10000000FCC000000C94E8180C943E1913C10000C9
:1000100011C100000FC100000DC100000C94CF10F1
:1000200009C1000013C1000005C100000C94C80DF7
:100030000C945123FFC00000FDC00000FBC0000075
:100040000C94B824F7C000000C940225F3C0000003
:10005000F1C00000EFC00000EDC00000EBC00000E8
:100060000C947012E7C0000075137813781378139E
:100070007813781378137813901278137813781311
:100080007813781378137813901278137813781301
:1000900078137813781378139812781378137813E9
:1000A0007813781378137813BD12781378137813B4
:1000B00078137813781378139812781378137813C9
:1000C0007813781378137813C2127813781378138F
:1000D0007813781378137813C7127813781378137A
:1000E0007813781378137813D81278137813781359
:1000F000781378137813781301137813781378131F
:100100007813781378137813CC1278137813781344
:100110007813781378137813E6127813781378131A
:1001200078137813781378130313781378137813EC
:1001300078137813781378130313781378137813DC
:1001400078137813781378130313781378137813CC
:1001500078137813781378130313781378137813BC
:1001600078137813781378130C13781378137813A3
:1001700078137813781378133C1378137813781363
:1001800078137813781378130C1378137813781383
:1001900078137813781378133C1378137813781343
:1001A000781378137813781324137813781378134B
:1001B000781378137813781340137813781378131F
:1001C000781378137813781340137813781378130F
:1001D00078137813781378135513781378137813EA
:1001E00078137813781378136F13781378137813C0
:1001F00078137813781378136F1311241FBECFEF81
:10020000D8E0DEBFCDBF12E0A0E0B1E0ECEAF5E55A
:1002100002C005900D92A633B107D9F726E0A6E3F8
:10022000B2E001C01D92AB36B207E1F70E943C2557
:100230000C94D42AE5CE1092B00087E08093B100F0
:100240001092B20081E08093700008951F920F9287
:100250000FB60F9211248F9380913A028F5F809393
:100260003A028F910F900FBE0F901F9018958091BA
:10027000360290913702A0913802B0913902892B51
:100280008A2B8B2B09F46BC080EF0E94F6148DE053
:100290000E94F61480E00E94F6148091CA040E9425
:1002A000F614809136028F770E94F6148091360200
:1002B00090913702A0913802B0913902689416F8F3
:1002C000B695A795979587951694D1F78F770E9445
:1002D000F6148091360290913702A0913802B091C5
:1002E0003902072E7EE0B695A795979587957A9562
:1002F000D1F7702D8F770E94F6148091360290917D
:100300003702A0913802B0913902072E75E1B695F7
:10031000A795979587957A95D1F7702D8F770E943D
:10032000F6148091360290913702A0913802B09174
:100330003902072E7CE1B695A795979587957A9512
:10034000D1F7702D0E94F61487EF0E94F6141092D8
:100350003602109237021092380210923902089534
:100360008091CA040E944B218823D1F3E2EBF0E094
:10037000808190E09093400280933F0210828091B0
:100380003F029091400207970497F0F48091CA04CD
:100390000E944B218111FACFE2EBF0E0808190E0E6
:1003A0009093400280933F02108280913F0290918F
:1003B00040029C01275031092430310538F049971B
:1003C000039730F08FEF08958FEF089580E0089540
:1003D00081E008950F931F93CF93DF93109236021D
:1003E000109237021092380210923902C8E0D0E021
:1003F000B7DF81114DC02197D9F7C6E0D0E0B0DF5B
:10040000813009F045C02197D1F7AADF811140C0A2
:10041000A7DF813009F03CC0CFE0D0E001E010E080
:100420009FDF8130F9F4C8010C2E02C0880F991F9C
:100430000A94E2F7092E000CAA0BBB0B409136027E
:10044000509137026091380270913902842B952BBC
:10045000A62BB72B8093360290933702A0933802D5
:10046000B09339022197E0F68091360290913702DD
:10047000A0913802B0913902AA27BB27A350BF4FE1
:100480008093360290933702A0933802B0933902DA
:10049000DF91CF911F910F910895CF93DF938093B8
:1004A000CA041092B200C2EBD0E003C0888110925F
:1004B0003A028091CA040E944B218111F7CF109219
:1004C000B2008091CA040E944B218823D1F3E2EB51
:1004D000F0E0808190E09093400280933F02108290
:1004E00080913F02909140028C589109049768F5E1
:1004F0008091CA040E944B218111FACFE2EBF0E017
:10050000808190E09093400280933F02108280911E
:100510003F02909140029C0124543109253031055D
:1005200010F458DF12C08297039778F48091CA04C0
:100530000E944B218823D1F3E2EBF0E0808190E030
:100540009093400280933F021082DF91CF910895F3
:100550008F929F92AF92BF92CF92DF92EF92FF92D3
:100560001F93CF93DF936C01162F0E94DC164B0173
:100570005C01CBE3D2E00D2C000CEE08FF0861E03B
:10058000812F0E941C21888199810E94021760E0BE
:10059000812F0E941C21888199810E9402170E944C
:1005A000DC16DC01CB0188199909AA09BB098C1555
:1005B0009D05AE05BF0518F3DF91CF911F91FF9008
:1005C000EF90DF90CF90BF90AF909F908F90089565
:1005D0008F929F92AF92BF92CF92DF92EF92FF9253
:1005E0006C01F62E0E94DC164B015C0160E08F2D41
:1005F0000E941C210D2C000CEE08FF080E94DC1646
:10060000DC01CB0188199909AA09BB098C159D0544
:10061000AE05BF0598F3FF90EF90DF90CF90BF90AD
:10062000AF909F908F900895E62FF0E0EE5CFE4F24
:10063000E0819E2F977041E050E09A0102C0220FA6
:10064000331F9A95E2F7F0E0F695E795F695E79572
:10065000F695E795BF01660F771FE60FF71FB09677
:10066000922F90953281932392839181292B21831C
:10067000682F70E0CA010E948728072E000C880BA3
:10068000990B0E94EE2620E030E04AE754E40E94F5
:10069000B82720E030E040EC50E40E94EF250E94B3
:1006A000BB2660933B0270933C0280933D02909383
:1006B0003E020895AF92BF92CF92DF92EF92FF92E7
:1006C0001F93CF93DF936B017C01142F5901642F8B
:1006D00086E2AADF612F88E293E23ADF612F84E9A4
:1006E00091E176DF1A141B04ECF4C0E0D0E0FF20A7
:1006F0004CF4612F80E392E02BDF612F80E496E0E1
:1007000067DF08C0612F80E392E022DF612F80E382
:1007100092E05EDFCC0CDD1CEE1CFF1C2196AC16BB
:10072000BD0629F7612F80E392E012DF612F80E0A0
:1007300090E04EDFDF91CF911F91FF90EF90DF901F
:10074000CF90BF90AF900895AF92BF92CF92DF92BB
:10075000EF92FF920F931F93CF93DF936C01C62FFD
:10076000D0E0FE01EE0FFF1FE55AFD4F8081918121
:10077000009749F00E94442AFE01EE0FFF1FE55A40
:10078000FD4F11821082FE01EE0FFF1FEF5BFD4F48
:1007900080819181009749F00E94442AFE01EE0F6A
:1007A000FF1FEF5BFD4F118210829091BD0480917D
:1007B000D104981719F084E090E002C083E090E043
:1007C0008C9D80018D9D100D9C9D100D112410930A
:1007D000BF040093BE04C8010E94AC297C01FE0145
:1007E000EE0FFF1FE55AFD4F91838083892BF9F0AF
:1007F000C8010E94AC295C01FE01EE0FFF1FEF5BF8
:10080000FD4F91838083892B91F0A80160E070E017
:10081000C7010E94CD2AA80160E070E0C5010E94D6
:10082000CD2AD092D804C092D70481E01BC0C70162
:100830000E94442ACC0FDD1FFE01E55AFD4F1182B4
:100840001082CF5BDD4F888199810E94442A1982F2
:1008500018821092BF041092BE041092D804109215
:10086000D70480E0DF91CF911F910F91FF90EF901F
:10087000DF90CF90BF90AF90089541E02091BD04EC
:100880009091D104291340E0382F32953695369552
:1008900033703093BD04982F92959F70937090930E
:1008A000D104282F2695269523702093C6048370A3
:1008B0008093CD04E62FF0E0EE0FFF1FE55AFD4FC9
:1008C0000190F081E02DEF2B51F081E0391380E0B1
:1008D000481729F08091D7049091D80435CF089516
:1008E000662321F1E82FF0E0EA5BFE4FE0812E2F36
:1008F000277081E090E002C0880F991F2A95E2F7E7
:10090000F0E0F695E795F695E795F695E7959F0162
:10091000220F331FE20FF31FB096982F909522817C
:10092000922392839181892B81830895E82FF0E0AF
:10093000EA5BFE4F8081E82FF0E0F695E795F695AB
:10094000E795F695E7959F01220F331FE20FF31FFE
:10095000B096282F277081E090E002C0880F991F81
:100960002A95E2F78095918198239183928189233A
:10097000828308950F931F93CF93C82F80912903EB
:100980008F3F99F08091D2048C130FC08091D304D3
:100990009091D4048617970741F48091D50484136D
:1009A00004C08091D604821719F1822F8B01E2EDE9
:1009B000F4E0C08372836183438324834093CC0437
:1009C0006C2F5BDF6C2FC801BFDEC82F882371F04E
:1009D0008091290388233CF061E082DF60E0809110
:1009E00029030E941C2181E08093CB048C2F00C03E
:1009F000CF911F910F910895CF93C82F8091CB0471
:100A0000882331F080912903882314F060E068DFA7
:100A1000C09329038091CB04882339F061E08C2FA7
:100A20005FDF60E08C2F0E941C218C2F90E0FC0186
:100A3000E35FFD4FE081F0E0EE0FFF1FED5FFD4F44
:100A4000208131813093CF042093CE04FC01E15109
:100A5000FE4F80818093B804CF9108952F923F92EA
:100A60004F925F926F927F928F929F92AF92BF92BE
:100A7000CF92DF92EF92FF920F931F93CF93DF936A
:100A8000CDB7DEB72C970FB6F894DEBF0FBECDBF43
:100A9000222E332E4C875B875E2C4F2C28E631E0CC
:100AA00040E050E00E949A286B017C01662E7D2C6C
:100AB000E982FA82852C942CA02EB12E24E682168F
:100AC0009104A104B10438F00F2EF3E68F2E912C7F
:100AD000A12CB12CF02DD501C401C297A109B048B9
:100AE000880F991F99231CF491958195910924E60B
:100AF00030E0281B390B032E000C440B550B622DE4
:100B0000732D8C859B85643671058105910520F0D8
:100B100063E670E080E090E00E946428982F872FC1
:100B2000762F662720E137E240E050E00E949A28C5
:100B300019012A01662D772D89819A812CE330E0F5
:100B400040E050E00E949A282A8329833CE3239FB7
:100B5000C0011124092E000CAA0BBB0BA7019601A2
:100B6000281B390B4A0B5B0B942F832F722F6627A0
:100B70002CE330E040E050E00E949A286A816170E6
:100B8000862F90E0982F88279A95280F391F3323B6
:100B90001CF4319521953109C901330FAA0BBB0B08
:100BA00040E051E060E070E09A01AB01281B390B96
:100BB0004A0B5B0BC201B1010E946428C72ED82EDC
:100BC000E92EFF2489818823B9F08130F1F0823049
:100BD00039F1833081F18430B9F1853009F03FC0BB
:100BE000CF82D886E986FA862B823C824D825E824D
:100BF000C12CD12C760133C02B823C824D825E8287
:100C00001F82188619861A862AC0CB82DC82ED8262
:100C1000FE82720161011F82188619861A861FC022
:100C2000CF82D886E986FA86720161011B821C8216
:100C30001D821E8214C02F82388649865A861B82E6
:100C40001C821D821E820BC02F82388649865A86DE
:100C5000CB82DC82ED82FE82C12CD12C7601D501C3
:100C6000C401880F991FAA1FBB1F6627782F892FE1
:100C70009A2F24E630E040E050E00E949A28DA0102
:100C8000C90182199309A409B5098C019D01369502
:100C90002795179507958B819C81AD81BE81800F2B
:100CA000911FA21FB31F9927AA27BB27DC019927F1
:100CB0008827C00ED11EE21EF31EFE2CED2CDC2C6C
:100CC000CC24EE24FF248C299D29AE29BF294F81F5
:100CD000588569857A85400F511F621F731FBC01BB
:100CE000CD01642B2C960FB6F894DEBF0FBECDBF9E
:100CF000DF91CF911F910F91FF90EF90DF90CF90F8
:100D0000BF90AF909F908F907F906F905F904F902B
:100D10003F902F9008952091D7043091D804621706
:100D2000730708F060C09091BD044091D104941302
:100D30002BC0E82FF0E0EE0FFF1FEF5BFD4F9B0194
:100D4000220F331F620F731F20813181260F371F3F
:100D50008091C604F901E80FF11D4081F901E90F06
:100D6000F11D6081862F90E0A0E0B0E0DC019927C2
:100D70008827942B4091CD04F901E40FF11D2081C7
:100D8000BC01CD01622B0895E82FF0E0EE0FFF1FAC
:100D9000E55AFD4F660F771F660F771F208131815F
:100DA000260F371FF901E90FF11D5081F901E40FFA
:100DB000F11D6081862F90E0A0E0B0E0DC01992772
:100DC0008827B52B4091CD04F901E40FF11D408136
:100DD000842B4091C604F901E40FF11D2081BC0170
:100DE000CD01722B089560E070E0CB0108951F9350
:100DF000CF93DF93CDB7DEB729970FB6F894DEBF58
:100E00000FBECDBF182FF8DD8091BE049091BF04B6
:100E10009A838983E12FF0E0EE0FFF1FE55AFD4F23
:100E20000190F081E02DDF01119680818B8380910C
:100E3000D004882309F43CC0E091CE04F091CF04A3
:100E400090818091B804982B9C8390818095892310
:100E50008D838D81898788E08887F8945C816D8196
:100E6000E091CE04F091CF044B81388529858981AA
:100E70009A81508347FD252F3A952083262F39F0FC
:100E8000441F00C000006083000000C0F2CF38E0C3
:100E90004D9160830000019761F7F093CF04E093D8
:100EA000CE044B83388729879A838983789440C0FE
:100EB000E091CE04F091CF0490818091B804982BFA
:100EC0009C839081809589238D838D818F8388E099
:100ED0008E835C816D814B813E812F8189819A81D6
:100EE000508347FD252F00C000C0208300C000C0F4
:100EF00000C000C000C060830000262F3A9541F07A
:100F0000441F000000C000C000C000C000C0E8CF07
:100F100038E04D9100C0608300C0019709F7F0935D
:100F2000CF04E093CE044B833E832F839A8389833F
:100F300029960FB6F894DEBF0FBECDBFDF91CF91DB
:100F40001F910895CF93DF936093CC042091D70431
:100F50003091D804232B09F44DC0282F30E0220F04
:100F6000331FF901E55AFD4F60817181F901EF5B93
:100F7000FD4F40815181E0E0F0E02091D10430E06C
:100F8000DB01A20FB31FEA01C20FD31F988120918A
:100F9000CC04929F900111243C932091C60430E030
:100FA000DB01A20FB31FEA01C20FD31F988120916A
:100FB000CC04929F900111243C932091CD0430E009
:100FC000DB01A20FB31FEA01C20FD31F988120914A
:100FD000CC04929F900111243C9331966D5F7F4F1A
:100FE0004D5F5F4F2091D7043091D804E217F3078B
:100FF00020F2FDDEDF91CF9108952F923F924F9224
:101000005F926F927F928F929F92AF92BF92CF9298
:10101000DF92EF92FF920F93CF93DF93E091D7048B
:10102000F091D8046E177F0708F09BC04A01AA24EC
:10103000BB24432E542E652E77249091BD04E0915D
:10104000D1049E131BC0E82FF0E0DB01AA0FBB1FE9
:10105000A60FB71FBF01660F771FFB01E55AFD4FB3
:101060000190F081E02D1F012A0E3B1EFB01EF5B7A
:10107000FD4F608171816A0F7B1F3CC0E82FF0E05B
:10108000DB01AA0FBB1FAA0FBB1FBF01660F771F93
:10109000FB01E55AFD4F0190F081E02D1F012A0E62
:1010A0003B1EFB01EF5BFD4F608171816A0F7B1F6F
:1010B000C52EDD24EE24FF24D101A90FB11DE0913E
:1010C000CC04EE2329F0CE9EF00111249F2F01C005
:1010D0009C2D9C939091BD04FB01E90FF11D909113
:1010E000CC04992329F0C99ED00111249B2F01C063
:1010F0009C2D90839091D104FB01E90FF11D80821A
:101100009091C604FB01E90FF11D40829091CD043E
:10111000FB01E90FF11D20839091CC04C92FD0E091
:101120008C9EB0018D9E700D11244C9EF0014D9E41
:10113000F00D11242C9FD0012D9FB00D1124909102
:10114000D104E101C90FD11D78839091C604E1015A
:10115000C90FD11DF8839091CD04F101E90FF11D64
:10116000B083011144DEDF91CF910F91FF90EF909A
:10117000DF90CF90BF90AF909F908F907F906F90B7
:101180005F904F903F902F9008958F929F92AF92D3
:10119000BF92DF92EF92FF920F931F93CF93DF9353
:1011A000D82E48015901772314F0552344F4409177
:1011B000D7045091D8044150510960E070E04617BF
:1011C00057072CF4962F872FBA01492F582F80915B
:1011D000D7049091D804009721F1772314F460E0AC
:1011E00070E0EB018617970708F4EC017A015523AC
:1011F00014F4E12CF12C8E159F0508F47C018FEF7F
:10120000E81AF80ACE15DF0550F400E0A5019401B4
:10121000BE018D2DF2DE2196CE15DF05B0F38D2DAA
:10122000E6DDDF91CF911F910F91FF90EF90DF905E
:10123000BF90AF909F908F9008951F93CF93DF93AF
:101240002091D7043091D804232B01F1182FC82FF7
:10125000D0E0CC0FDD1FFE01E55AFD4F4091BE04EA
:101260005091BF0460E070E0808191810E94CD2A9E
:10127000CF5BDD4F4091BE045091BF0460E070E051
:10128000888199810E94CD2A812FB1DDDF91CF9194
:101290001F9108952F923F924F925F926F927F928B
:1012A0008F929F92AF92BF92CF92DF92EF92FF9276
:1012B0000F931F93CF93DF93CDB7DEB727970FB66A
:1012C000F894DEBF0FBECDBF898328013901CA82E1
:1012D000DB82EC82FD824617570728F4962F872F72
:1012E000BA01492F582F8091D7049091D8040097C4
:1012F00009F4DEC07F836E838617970710F49F83FF
:101300008E831A018417950708F41C01F1013196A8
:101310002E813F81E21BF30B4A815B8148595E4F6E
:10132000441955099A01A3E8BDE20E94DE28002471
:10133000880F991F001C880F991F001C892F902D62
:1013400068E671E0869F9001879F300D969F300D73
:101350001124421B530B24E6249FC001259F900DAE
:101360001124BF010E9473286B014B013197B9F41E
:10137000460E571EB20180E090E012E3E12EF12C00
:1013800000E010E024E630E040E050E067DB9B0145
:10139000AC0100E06E817F8189812FDE87C012E37E
:1013A000E12EF12C00E010E024E630E040E050E0D7
:1013B000C301B20153DB9B01AC0100E06E817F8170
:1013C00089811BDE6E817F816F5F7F4F7F836E839C
:1013D0006215730508F056C024E6249DC001259DC2
:1013E000900D1124C69E5001C79EB00CD69EB00C25
:1013F0001124A80EB91E0F2EF0E1CF2EF7E2DF2E3A
:10140000F02D960128583341369527953695279526
:10141000ABE7B4E10E94DE28969587957C0100E059
:1014200010E0960136952795369527950E94DE287F
:10143000969587952C01612C712C950136952795F1
:10144000369527950E94DE2896958795BC016859A8
:101450007E4F80E090E0A301920100DB9B01AC0194
:1014600000E06E817F818981C8DD8E819F81019638
:101470009F838E83A80CB91C960169018215930580
:1014800008F4BFCF12E3E12EF12C00E010E024E6D7
:1014900030E040E050E06A817B818C819D81DEDA22
:1014A0009B01AC0100E0B1018981A7DD89819FDC4E
:1014B00027960FB6F894DEBF0FBECDBFDF91CF9158
:1014C0001F910F91FF90EF90DF90CF90BF90AF9062
:1014D0009F908F907F906F905F904F903F902F9054
:1014E0000895AF92BF92CF92DF92EF92FF920F9347
:1014F0001F93CF93DF93662309F46CC0C091D70488
:10150000D091D804209709F465C0182FC62E062E56
:10151000000CDD08CC15DD0510F48FDE5BC016165F
:101520007CF0062E000C770B77231CF471956195E7
:1015300071095B017E01E61AF70AC12CD12C27C084
:101540002197E62E660FFF08CE15DF057CF0BE0161
:101550006C197D09812FDFDB9B01AC0100E0BE012E
:10156000812F4BDD2197CE15DF058CF71E141F044C
:101570007CF5C0E0D0E000E020E030E0A901BE0151
:10158000812F3BDD2196CE15DF05A9F721C0B501DE
:101590006C0D7D1D812FBFDB9B01AC0100E0B6010E
:1015A000812F2BDD8FEFC81AD80AEC14FD0478F7D1
:1015B000EC16FD0668F400E020E030E0A901B70178
:1015C000812F1BDD8FEFE81AF80AEC16FD0698F361
:1015D000812F0DDCDF91CF911F910F91FF90EF9044
:1015E000DF90CF90BF90AF9008952F923F925F927F
:1015F0006F927F928F929F92AF92BF92CF92DF9223
:10160000EF92FF920F931F93CF93DF9300D0CDB74C
:10161000DEB7582E6DB67EB6662309F4F3C0E090AF
:10162000D704F090D804E114F10409F4EBC0862F3C
:10163000660F990BB7010E94732818160CF05EC054
:101640002DB63EB6C82E880FDD084601C601880FAC
:10165000991F880F991F2DB73EB7281B390B0FB65E
:10166000F8943EBF0FBE2DBF8DB79EB701969A83EB
:1016700089831C141D040CF0B7C087010C191D09C7
:101680005C01B801852D47DBF5016193719381936E
:1016900091935F010F5F1F4FE016F10691F79CC019
:1016A000B70168197909852D36DB9B01AC0100E093
:1016B000B701852DA2DCF1E0EF1AF108EC14FD046E
:1016C0007CF71C141D04A4F4A980BA80E12CF12C31
:1016D000F50121913191419151915F0100E0B701F4
:1016E000852D8BDCFFEFEF1AFF0AEC14FD0484F369
:1016F0000FB6F8943EBE0FBE2DBE6BC02DB63EB6E3
:10170000082E000C990B99231CF491958195910951
:101710008C014C01880F991F880F991F2DB73EB778
:10172000281B390B0FB6F8943EBF0FBE2DBF8DB7E7
:101730009EB701969A838983101611060CF05CC03F
:101740005C01C12CD12CB601852DE5DAF501619340
:101750007193819391935F01FFEFCF1ADF0A0C150C
:101760001D0589F749C0B4016C0D7D1D852DD3DAA7
:101770009B01AC0100E0B601852D3FDC2FEFC21AC2
:10178000D20AAC14BD0478F76501AE14BF04E0F4CE
:101790008E189F08A80CB91CAA0CBB1CAA0CBB1C59
:1017A00089819A81A80EB91EF5012191319141914B
:1017B00051915F0100E0B601852D1FDCFFEFCF1ACC
:1017C000DF0ACE14DF0480F30FB6F8943EBE0FBEDE
:1017D0002DBE852D0CDB16C021E0E21AF108EC14B9
:1017E000FD040CF05DCF70CF31E0E31AF108EC148A
:1017F000FD040CF47DCF54CF5701A818B908C12CB3
:10180000D12CB1CF0FB6F8947EBE0FBE6DBE0F9037
:101810000F90DF91CF911F910F91FF90EF90DF908C
:10182000CF90BF90AF909F908F907F906F905F9080
:101830003F902F9008952F923F924F925F926F9218
:101840007F928F929F92AF92BF92CF92DF92EF9250
:10185000FF920F931F93CF93DF9300D01F92CDB7CA
:10186000DEB789834617570728F4962F872FBA01CA
:10187000492F582F8091D7049091D804009709F4EC
:101880009AC07B836A838617970710F49B838A83A9
:101890008417950708F4AC011016110674F08981BD
:1018A000CCDC00E020E03FEF4FEF50E06A817B812D
:1018B0008981A3DB89819BDA7EC07A016A817B8181
:1018C000E61AF70A57017FEFA71AB70AA9013323CF
:1018D00024F444275527421B530B4A9DC0014B9DBE
:1018E000900D5A9D900D1124B8010E9473284B0150
:1018F000672B21F0A114B104F9F45BC082E0A816B3
:10190000B10408F456C06A817B816F5F7F4F7B838F
:101910006A83E60EF71E00E020E030E0A9016A814C
:101920007B8189816ADB8A819B8101969B838A8383
:10193000E816F90681F73DC0C12CD12C612C712C21
:10194000212C312C21012A9468147904D8F4C60181
:10195000B7010E9473289B013327C901A0E0B0E0C2
:101960009C0111270027D201C101861B970BA109F9
:10197000B109A9019801282B00E06A817B81898146
:101980003CDB08C000E020E030E0A9016A817B81F7
:10199000898133DB7FEF671A770A8FEFC80ED11C7E
:1019A0006A817B816F5F7F4F7B836A836A147B04CC
:1019B00058F289811CDA0F900F900F90DF91CF9130
:1019C0001F910F91FF90EF90DF90CF90BF90AF905D
:1019D0009F908F907F906F905F904F903F902F904F
:1019E000089504C06150710981099109611571055B
:1019F00081059105B9F708959F92AF92BF92CF925A
:101A0000DF92EF92FF920F931F93CF93DF93E9ED55
:101A1000F4E010821182128213821482FC01EC51D4
:101A2000FB4F9080FC01E651FB4FC08161E070E00C
:101A3000892D0E94232060E0892D0E941C21CC2347
:101A4000A1F1A12C0F2EF4E2BF2EF02D0F2EF4EFFA
:101A5000CF2EF02DD12CE12CF12C00E010E02C2F1A
:101A600030E040E050E060E070E080E090E00E9414
:101A7000FD280F2EF6E0AF2EF02DB12CC12C0E94C8
:101A8000502929513C4F4F4F5F4F6F4F7F4F8F4F22
:101A90009F4F0E94292720E030E04AE754E40E944B
:101AA00053260E94C0269DDF05C063E070E080E001
:101AB00090E097DF60E070E0892D0E94232088E2AB
:101AC00090E00E940217C0E9D1E003C0219709F419
:101AD00048C0892D0E944B218823C1F303C0219760
:101AE00019F442C0C0E9D1E0892D0E944B21811137
:101AF000F6CF08E2B12C10E803C0219719F437C0E3
:101B0000C0E9D1E0892D0E944B218823B1F30E94C6
:101B1000DC166B017C01C0E9D1E002C0219751F1D4
:101B2000892D0E944B218111F9CF0E94DC16DC0126
:101B3000CB018C199D09AE09BF098997A105B10593
:101B400038F0EB2DF0E0E752FB4F8081812B808352
:101B5000169511F4B39410E8015091F680E090E0EE
:101B60000BC08EEF9FEF08C08EEF9FEF05C08EEF8A
:101B70009FEF02C08EEF9FEFDF91CF911F910F91EA
:101B8000FF90EF90DF90CF90BF90AF909F9008951F
:101B90001F920F920FB60F9211242F933F934F93E2
:101BA0005F936F937F938F939F93AF93BF93EF93C5
:101BB000FF9380917F0288232CF41092850010926D
:101BC00084002DC020917F02022E000C330B8091E7
:101BD000060190E02817390714F580917F02082E3E
:101BE000000C990BFC01EE0FFF1F8E0F9F1FFC01D5
:101BF000E058FD4F808186FF12C080917F02082E41
:101C0000000C990BFC01EE0FFF1F8E0F9F1FFC01B4
:101C1000E058FD4F808160E08F730E941C2180910D
:101C20007F028F5F80937F0220917F02022E000C43
:101C3000330B8091060190E0281739070CF040C063
:101C400080917F028C30E4F52091840030918500F2
:101C500080917F02082E000C990BFC01EE0FFF1FF4
:101C60008E0F9F1FFC01E058FD4F81819281820FF2
:101C7000931F909389008093880080917F02082EA3
:101C8000000C990BFC01EE0FFF1F8E0F9F1FFC0134
:101C9000E058FD4F808186FF2EC080917F02082E84
:101CA000000C990BFC01EE0FFF1F8E0F9F1FFC0114
:101CB000E058FD4F808161E08F730E941C211BC0A2
:101CC0008091840090918500049680349C4938F47A
:101CD00080E49CE9909389008093880009C08091FA
:101CE00084009091850004969093890080938800E9
:101CF0008FEF80937F02FF91EF91BF91AF919F9102
:101D00008F917F916F915F914F913F912F910F90A4
:101D10000FBE0F901F901895EF92FF920F931F9395
:101D2000CF93C82F7B018A0161E070E00E942320DD
:101D3000E0E8F2E0CF738081807CC82BC08320E292
:101D400032E02E193F09C90199230CF403969595A9
:101D500087959595879580937E0220E639E0201B34
:101D6000310BC90199230CF40396959587959595A8
:101D7000879580937D028091800286FD1FC081E05F
:101D800090E0FC01EE0FFF1FE80FF91FE058FD4F38
:101D9000208126FD13C001968C30910591F7109299
:101DA000800082E080938100109285001092840070
:101DB000B19AEFE6F0E0808182608083E0E8F2E0B3
:101DC00080818064808380E0CF911F910F91FF908C
:101DD000EF900895AC0180917E0228E830E0281B46
:101DE000310987FD3395C901880F991F880F991F05
:101DF000481759078CF080917D0228E532E0281BB6
:101E0000310987FD3395220F331F220F331FCA017B
:101E1000241735070CF4C9012FB7F8940297092E3F
:101E2000000CAA0BBB0B880F991FAA1FBB1F8E7F2C
:101E3000BF7190938202809381022FBF0895CF9249
:101E4000DF92EF92FF92803222E092070CF040C0C6
:101E5000BC01992314F460E070E080917E02A8E850
:101E6000B0E06D01C81AD10887FDD394D601AA0F3E
:101E7000BB1FAA0FBB1F6D01BB0FEE08FF088091AF
:101E80007D0228E532E0281B310987FD3395220FBA
:101E9000331F220F331FC901330FAA0BBB0B9C0149
:101EA000AD012C193D094E095F09DB01653B710548
:101EB00014F0A4EBB0E00E94F72824EB30E040E0FF
:101EC00050E00E94BC28C20ED31EE41EF51EC601BF
:101ED00081DFFF90EF90DF90CF9008958CE08093AA
:101EE000060180E090E028EB3BE0FC01EE0FFF1FD5
:101EF000E80FF91FE058FD4F3283218301968C30A3
:101F0000910599F708958F929F92AF92BF92CF92C9
:101F1000DF92EF92FF920F931F93CF93909107015F
:101F2000981313C1CFC080930701A0EBB0E01C92BF
:101F3000E1EBF0E010829C9192609C939081916023
:101F40009083A82FB0E0FD01E35FFD4FE081F0E05A
:101F5000EE0FFF1FED5FFD4F0190F081E02DF0933C
:101F6000F104E093F004FD01E151FE4F9081909364
:101F7000F204A8C069017A01689413F8F694E79412
:101F8000D794C7941694D1F781E0C81AD108E10814
:101F9000F1088FEFC816D104E104F10409F008F448
:101FA00056C069017A01689415F8F694E794D794BD
:101FB000C7941694D1F781E0C81AD108E108F10856
:101FC0008FEFC816D104E104F10411F008F0A0C0AD
:101FD00083E03EC0C32ED42EE52EFF2481E0C81A34
:101FE000D108E108F1088FEFC816D104E104F1042B
:101FF00009F008F4A6C069017A010B2EB9E0F69445
:10200000E794D794C794BA95D1F7B02D81E0C81A58
:10201000D108E108F1088FEFC816D104E104F104FA
:1020200009F008F490C0DA01C901072E7BE0B695EB
:10203000A795979587957A95D1F7702D6C017D01BD
:1020400021E0C21AD108E108F10887E001C082E06E
:10205000E1EBF0E09081987F892B808301151105D9
:1020600051F4E0E7F0E080818D7F808360E08C2F89
:102070000E941C216DC081149104A104B10471F06F
:10208000D801AA0FBB1FA50194010E94ED2828EEDC
:1020900033E040E050E00E949A2804C020E03AEC8F
:1020A0004AE95BE3C092B3002093FA043093FB0447
:1020B0004093FC045093FD04E0E7F0E080818260EF
:1020C000808346C049015A018B01C82F61E070E04E
:1020D0000E942320980140E050E060E074E284EF29
:1020E00090E00E949A2869017A01F694E794D794C7
:1020F000C79481E0C81AD108E108F1088FEFC8162B
:10210000D104E104F10411F008F034CF81E0A0CF54
:1021100069017A01689416F8F694E794D794C79405
:102120001694D1F781E0C81AD108E108F1088FEFC1
:10213000C816D104E104F10411F008F04BCF84E09B
:1021400087CF85E085CF86E083CF9F3F09F4EBCE34
:10215000CF911F910F91FF90EF90DF90CF90BF90A4
:10216000AF909F908F90089590910701891313C0AD
:102170009FEF90930701E0E7F0E090819D7F9083CF
:1021800091E09093B000E1EBF0E09081987794605B
:1021900090831092B30060E00C941C2108951F926C
:1021A0000F920FB60F9211242F933F934F935F938B
:1021B0006F937F938F939F93AF93BF93EF93FF930F
:1021C0008091FA049091FB04A091FC04B091FD046D
:1021D000892B8A2B8B2B51F19091F204E091F00422
:1021E000F091F1048081892780838091FA04909195
:1021F000FB04A091FC04B091FD04181619061A0600
:102200001B06BCF48091FA049091FB04A091FC049D
:10221000B091FD040197A109B1098093FA0490934C
:10222000FB04A093FC04B093FD0403C0809107015C
:102230009BDFFF91EF91BF91AF919F918F917F9124
:102240006F915F914F913F912F910F900FBE0F9023
:102250001F901895CF93DF93EC01E0914005F0912A
:102260004105309701F19091A9028091A802981739
:10227000D0F0161617068CF420E030E090E0DE0176
:10228000A90FB11D4C91D901A050BB4F4C939F5F3A
:10229000292F30E02617370794F3CB011092A902BB
:1022A0006093A8020995DF91CF910895E091FE0413
:1022B000F091FF04309729F01092A6021092A50227
:1022C000099508951092170381E0809315031092E9
:1022D000140361E082E10E941C2161E083E10E941D
:1022E0001C21E9EBF0E080818E7F808380818D7FEF
:1022F000808388E48093B80085E48093BC000895CF
:10230000413208F04CC0909117039111FCCF31E09D
:1023100030931703209315032FEF2093AA021092F6
:10232000EF02240F2093EE02309316032091160340
:10233000880F822B8093160380911403813081F4DF
:1023400010921403ABEBB0E0ECEBF0E080911603DD
:102350008C93808183FDFACF85EC8093BC0003C011
:1023600085EE8093BC00809117038130E1F380916A
:10237000EF02841710F44091EF02442389F0E0EF5C
:10238000F2E0A62FB72F2FEF240F30E02F503D4F54
:1023900081918D93E217F307D9F7942F01C090E054
:1023A000892F08950F93413208F057C030911703D9
:1023B0003111FCCF92E090931703009315039FEF28
:1023C0009093AA021092EF024093EE02442371F020
:1023D000FB01A0EFB2E0415050E04F5F5F4F640F50
:1023E000751F91919D93E617F707D9F71092160381
:1023F00090911603880F892B809316038091140304
:10240000813081F410921403ABEBB0E0ECEBF0E020
:10241000809116038C93808183FDFACF85EC8093A5
:10242000BC0003C085EE8093BC00222341F0809164
:102430001703823021F4809117038230E1F38091F9
:10244000AA028F3F79F08091AA02803241F08091F8
:10245000AA02803331F034E005C031E003C032E03D
:1024600001C033E0832F0F9108954091CC02262FB5
:1024700030E0240F311D21323105ECF42091170397
:102480002430D9F4662381F0A82FB92F80E090E0A2
:102490003091CC022D91FC01E253FD4FE30FF11D71
:1024A000208301968617A0F38091CC02680F609379
:1024B000CC0280E0089581E0089582E0089585EDE2
:1024C0008093BC00ECEBF0E0808184FDFDCF1092A6
:1024D0001703089585EC8093BC00109217030895AC
:1024E0001F920F920FB60F9211242F933F934F9389
:1024F0005F936F937F938F939F93AF93BF93EF936C
:10250000FF938091B900E82FE87F8E2F90E0893CFF
:10251000910508F0EDC0FC01EC5CFF4F0C94D8284D
:10252000809116038093BB0085EC8093BC00E0C0D3
:102530009091EF028091EE02981780F4E091EF0203
:1025400081E08E0F8093EF02F0E0E051FD4F80813B
:102550008093BB0085EC8093BC00CAC080911503BA
:10256000882311F0ACDFC4C081E08093140384EAB7
:102570008093BC0010921703BBC080E28093AA0234
:102580009EDFB6C080E38093AA0299DFB1C088E3E2
:102590008093AA029FDFACC0E091EF0281E08E0F32
:1025A0008093EF028091BB00F0E0E051FD4F80830B
:1025B0009091EF028091EE02981720F485EC8093C1
:1025C000BC0096C085E88093BC0092C0E091EF0209
:1025D00081E08E0F8093EF028091BB00F0E0E0512C
:1025E000FD4F808380911503882311F068DF80C040
:1025F00081E08093140384EA8093BC001092170357
:1026000077C05DDF75C083E0809317031092AB0243
:1026100085EC8093BC006CC08091AB02803280F46A
:10262000E091AB0281E08E0F8093AB028091BB0002
:10263000F0E0E455FD4F808385EC8093BC0058C0EA
:1026400085E88093BC0054C045DF8091AB028032A6
:1026500030F4E091AB02F0E0E455FD4F1082609160
:10266000AB0270E0E0911003F09111038CEA92E06C
:1026700009951092AB023CC085E88093BC0038C03D
:1026800084E0809317031092CD021092CC02E09167
:102690001203F091130309958091CC02811105C0BA
:1026A00081E08093CC021092CE02E091CD0281E0D5
:1026B0008E0F8093CD02F0E0E253FD4F8081809336
:1026C000BB009091CD028091CC02981720F485EC4C
:1026D0008093BC000DC085E88093BC0009C085ECE8
:1026E0008093BC001092170303C01092AA02E7DE89
:1026F000FF91EF91BF91AF919F918F917F916F91DA
:102700005F914F913F912F910F900FBE0F901F90AF
:1027100018951092A9021092A8021092A602109287
:10272000A502D0DD86E591E1909313038093120317
:102730008AE291E190931103809310030895462F4C
:10274000613208F040E221E060E075E0D9DD1092EE
:10275000A9028093A802089591E09093A402809327
:10276000A7021092A6021092A50208950F93CF938C
:10277000C82F0C2F21E04091A50260E275E0809106
:10278000A70210DE9091A502992311F08111F1CFDB
:102790001092A6021092A5021092A402CF910F915E
:1027A0000895CF93DF931F92CDB7DEB789838091D1
:1027B000A4028823A1F08091A5028032B8F4809110
:1027C000A602E82FF0E0E05EFA4F998190838F5FD8
:1027D0008093A6028093A50281E090E009C061E0A9
:1027E000CE01019642DE81E090E002C080E090E000
:1027F0000F90DF91CF9108958091A80290E02091F1
:10280000A902821B910908959091A9028091A802C2
:10281000981750F4E92FF0E0E050FB4F208130E0B2
:102820009F5F9093A90202C02FEF3FEFC901089567
:102830008F929F92AF92BF92CF92DF92EF92FF92D0
:10284000CF93DF9390E0FC01E05AFA4FD081FC0176
:10285000EE5BFA4FC081880F991F880F991FFC010A
:10286000E85BFA4FC080D180E280F3802D2F277083
:1028700081E090E0AC0102C0440F551F2A95E2F7B9
:102880009A01ED2FF0E0F695E795F695E795F69528
:10289000E795AF01440F551FE40FF51FB096322F97
:1028A00030954281342332833181232B2183EC2FD5
:1028B000F0E0F695E795F695E795F695E7959F0193
:1028C000220F331FE20FF31FB0962C2F277002C088
:1028D000880F991F2A95E2F780959181982391831B
:1028E00092818923828360E08D2F0E941C2182E0E7
:1028F00090E088D261E08D2F0E941C218AE090E058
:1029000081D260E08D2F0E941C2156D24B015C01C8
:102910008C2F0E944B2181110CC04ED2DC01CB01C7
:1029200088199909AA09BB09C816D906EA06FB063F
:1029300078F742D24B015C018C2F0E944B218823F7
:1029400061F03AD2DC01CB0188199909AA09BB09C7
:10295000C816D906EA06FB0678F72ED26819790957
:102960008A099B0928E330E040E050E00E949A2861
:10297000C901DF91CF91FF90EF90DF90CF90BF9092
:10298000AF909F908F900895CF93DF931F92CDB714
:10299000DEB78FB78983F89489815F9350E85093AD
:1029A000610050E0509361005F918FBF0F90DF9105
:1029B000CF910895CF93DF931F92CDB7DEB79FB726
:1029C0009983F8949981811106C0E4E6F0E060955E
:1029D0008081682360839FBF0F90DF91CF9108951E
:1029E0008091C000881F8827881F0895E0ECF0E0E0
:1029F000908195FFFDCF8093C60080E0089580917F
:102A0000C60008954F925F926F927F928F929F922D
:102A1000AF92BF92CF92DF92EF92FF920F931F93EC
:102A2000CF93DF93EC016A017B012801390168949F
:102A300012F876946794579447941694D1F7888146
:102A400081FD0EC048015901072E73E1B694A79489
:102A5000979487947A95D1F7702DD301C20115C050
:102A6000D901C801689413F8B695A79597958795ED
:102A70001694D1F748015901072E74E1B694A79432
:102A8000979487947A95D1F7702D8C159D05AE0596
:102A9000BF0578F1C814D904EA04FB0460F1888109
:102AA00081FF10C0A7019601220F331F441F551F3D
:102AB000C301B2010E949A28DA01C9010197A10954
:102AC000B10913C0C901B801689413F896958795A8
:102AD000779567951694D1F7A70196010E949A28D9
:102AE000DA01C9010197A109B1099D838C8381E0B5
:102AF00003C080E001C080E0DF91CF911F910F9172
:102B0000FF90EF90DF90CF90BF90AF909F908F900D
:102B10007F906F905F904F9008950F931F93CF9386
:102B2000DF93EC018B01803C910519F462E080E0B9
:102B300041DF8A818F738A83888182608883F8016C
:102B40002681358184819A81482F4370440F997F73
:102B5000942B9A8399818470880F880F9B7F892B8F
:102B600089838A818F7C832B8A839A81977F822FA6
:102B7000880F880F880F892B8A8340815181628159
:102B8000738100E014E224EF30E0CE013BDF998155
:102B900098609983998190619983DF91CF911F917A
:102BA0000F910895AF92BF92CF92DF92EF92FF9272
:102BB0000F931F93CF93DF93E82EF12CEE0CFF1CA5
:102BC000EE0CFF1CEE0CFF1C182F110F110F110F34
:102BD000C0E0D0E000E022E0E21AF108C62ED12CDD
:102BE000AA24A394B12CC7018C0F9D1F4297B0F467
:102BF000C6010C2E02C0959587950A94E2F780FFD6
:102C00000DC0812F0E944B21882341F0C5010C2E5D
:102C100002C0880F991F0A94E2F7082B21961F5FC4
:102C2000C830D10501F7802FDF91CF911F910F910F
:102C3000FF90EF90DF90CF90BF90AF9008955F929C
:102C40006F927F928F929F92AF92BF92CF92DF92BC
:102C5000EF92FF920F931F93CF93DF938A01FB01B3
:102C60005080452B09F04FC00FEF1FEF4CC067019C
:102C7000F70181917F0190E00C2E02C0880F991F0F
:102C80000A94E2F785298F77B1DE2FEF821A920A34
:102C9000F601808190E095012C1B3D0B02C09595BB
:102CA00087952A95E2F7582E2196C730D105A0F0D6
:102CB00080169106C0F5852D8F7798DEFFEF8F1A6D
:102CC0009F0A551C5524551C2797C730D10520F065
:102CD0008016910680F327C0E614F70421F08016D1
:102CE000910628F223C0209709F180169106F0F48E
:102CF00081E090E002C0880F991FCA95E2F78150E9
:102D0000852174DE13C0009789F07B013B01680EBA
:102D1000791EC0E0D0E0812C912C0F2EF7E0AF2E71
:102D2000B12CF02DA4CFE614F704E9F2DF91CF9196
:102D30001F910F91FF90EF90DF90CF90BF90AF90D9
:102D40009F908F907F906F905F900895EF92FF9289
:102D50000F931F93CF93DF93C82F162F7A0180EF25
:102D600045DE8C2F43DE112391F0E7011150012F36
:102D700010E00F5F1F4F0E0D1F1D40E050E0BE0121
:102D800081E090E05CDF2196C017D107B1F787EFB3
:102D90002DDEDF91CF911F910F91FF90EF9008955D
:102DA000FC0101900020E9F73197BF01681B790B06
:102DB000AC0181E7CBCF08953FB7F89480917204BE
:102DC00090917304A0917404B091750426B5A89BEA
:102DD00005C02F3F19F00196A11DB11D3FBFBA2FAD
:102DE000A92F982F8827820F911DA11DB11DBC010D
:102DF000CD01660F771F881F991F660F771F881FE9
:102E0000991F08958230910538F0880F991F880F17
:102E1000991F05970197F1F70895109221061092D6
:102E2000F8051092F70510926E0510926D0510923C
:102E3000B00510926C0580E48093220608950F93EC
:102E40001F93CF93DF9300D000D0CDB7DEB7809132
:102E500066058823E9F009E615E0F801608180E065
:102E6000A1DEF801108118238091B305181781F0B5
:102E7000812F90E09C838B8380E9B8DD42E050E0B5
:102E8000BE016D5F7F4F82E090E0D9DE1093B30505
:102E9000809167058823E9F009E615E0F801618172
:102EA00081E080DEF801118118238091B4051817A4
:102EB00081F0812F90E09A83898381E997DD42E058
:102EC00050E0BE016F5F7F4F82E090E0B8DE10936C
:102ED000B4050F900F900F900F90DF91CF911F913D
:102EE0000F910895CF93DF9300D0CDB7DEB77A83EB
:102EF0006983803170F46115704458F4806E76DD1A
:102F000042E050E0BE016F5F7F4F82E090E097DECD
:102F100006C08FEF6BDD8FEF69DD8FEF67DD0F9000
:102F20000F90DF91CF910895CF93DF93D2EFC0E060
:102F3000C431C0F4D630B0F48C2F0E941D208230F2
:102F400089F48091260390E00D2E02C09595879517
:102F50000A94E2F780FF06C08D2F0E947C21BC01FD
:102F60008D2FC0DFCF5FDF5FC43111F7DF91CF91CD
:102F70000895CF92DF92FF920F931F93CF93DF9329
:102F8000182FEB01F42E022F6F3F7F4F71F0812F2E
:102F9000E3DB8C2F06DC802FE9DB8091240390910A
:102FA0002503009721F02EDF02C0C0E0D0E06F2D96
:102FB000812FC5DBCF2CD12C1FDCC816D9060CF015
:102FC0001BDCEFE6F5E01083C18316DC892B89F06A
:102FD0001C141D0474F4C1E7D5E00F2D10E00F5848
:102FE0001A4F12DC899308DC892B19F0C017D1071E
:102FF000C1F762E06F0D4FE655E087E7A7DEDF918E
:10300000CF911F910F91FF90DF90CF900895CF93B4
:1030100080E009C08151823028F466E070E08C2F96
:103020000E9423208C2FC1E0C80FC43199F781E0A2
:10303000809323036EDBCF910895EF92FF921F934D
:10304000CF93DF938091790290917A029C012F5F58
:103050003F4F30937A022093790220917B02309186
:103060007C02281739070CF057C0809177029091A5
:103070007802892B09F450C08091760290E00E947A
:10308000FC0CBC0190917602492F50E0FA01EC5102
:10309000FB4FD081FA01E252FB4FC08110927A02BD
:1030A00010927902909375029F5F9093760220911F
:1030B000770230917802215031094217530714F0FA
:1030C00010927602672B41F5E9EDF4E09081818161
:1030D000980F8281980F8381980F81E02481921349
:1030E00001C080E0182F80EF81DC85E67FDC8D2F2A
:1030F0007DDC8C2F7BDCC9EDD4E00F2EFDEDEF2EB7
:10310000F4E0FF2EF02D899171DCCE15DF05D9F7A3
:10311000812F6CDC87EF6ADCDF91CF911F91FF90EC
:10312000EF900895CF93DF9380911D0390911E033C
:103130009C012F5F3F4F30931E0320931D0320916E
:103140001B0330911C03281739070CF03EC0109266
:103150001E0310921D038091210390912203892B5D
:10316000A1F18091190364DBEC01209119033091E6
:103170001A0320931803C901019690931A038093B0
:103180001903809121039091220301972817390791
:1031900024F010921A031092190380EF27DC83E6C3
:1031A00025DCE0911803F0E0E05AFA4F80811EDC44
:1031B0008C2F8F771BDCCE01880F892F881F990BEE
:1031C00091958F7713DC87EF11DCDF91CF91089514
:1031D0001F920F920FB60F9211240F931F932F93EC
:1031E0003F934F935F936F937F938F939F93AF938F
:1031F000BF93EF93FF93E09A0E94AC240091C20426
:103200001091C3042091C4043091C504DC01CB01AA
:10321000801B910BA20BB30B883C9105A105B10556
:1032200058F40E94AC246093C2047093C30480934A
:10323000C4049093C5040FC082E00E944D020E9416
:1032400037010E94AC246093C2047093C30480933E
:10325000C4049093C504FF91EF91BF91AF919F91EA
:103260008F917F916F915F914F913F912F911F911E
:103270000F910F900FBE0F901F9018951F920F92F5
:103280000FB60F9211240F931F932F933F934F93D9
:103290005F936F937F938F939F93AF93BF93EF93BE
:1032A000FF93E19A0E94AC240091C2041091C304E0
:1032B0002091C4043091C504DC01CB01801B910B2B
:1032C000A20BB30B883C9105A105B10558F40E94EF
:1032D000AC246093C2047093C3048093C40490939D
:1032E000C5040FC083E00E944D020E9437010E9476
:1032F000AC246093C2047093C3048093C40490937D
:10330000C504FF91EF91BF91AF919F918F917F91F4
:103310006F915F914F913F912F911F910F910F905E
:103320000FBE0F901F901895CF92DF92EF92FF92F1
:103330000F931F93CF93DF93CDB7DEB7CF57D1094C
:103340000FB6F894DEBF0FBECDBF8091B7058137B1
:1033500009F4B7C4893779F580916D0590916E05B0
:10336000039708F0AEC4C0900901D0900A01F6019D
:1033700001900020E9F731977F01EC18FD0880EFFC
:1033800035DB89E733DB82E031DB86E02FDBE114DC
:10339000F10471F08601EC0CFD1C40E050E0B80136
:1033A00081E090E04CDC0F5F1F4F0E151F05A9F761
:1033B00087EF1CDB86C490916D051FEF190F8436D3
:1033C00009F404C270F48135E9F020F48D3009F479
:1033D0004EC277C48F3509F48FC1823609F4B4C167
:1033E00070C48637C1F038F4893609F428C18037B3
:1033F00009F45EC166C4883709F409C18A3709F443
:1034000032C15FC480EFF2DA82E5F0DA81E0EEDA11
:1034100087EFECDA56C40091B90505FD52C40E944D
:103420006211E7EBF5E08181928196FB992790F993
:1034300021E029270871083039F118F4002341F000
:1034400040C4003109F43FC0083109F480C039C4D8
:1034500083D9133098F002E0202F30E0F901E754CF
:10346000FA4F8081879588278795F901E854FA4FAC
:103470009081890F96D90E5F011770F381E076D99C
:1034800086E490E0BFDC1DC4163089F4E7EBF5E07C
:103490009481638170E030E8939F600D711D112469
:1034A00046814795442747959581490F0AC0E7EB28
:1034B000F5E044814795442747959381490F6FEF85
:1034C0007FEF57DDFEC340910801642F042E000CEE
:1034D000770B6F5F7F4F6830710524F08AE591E0CC
:1034E0005FDCEFC3163091F4E7EBF5E09481638184
:1034F00070E0A0E89A9F600D711D11249681392F0C
:103500003795332737959581930F0BC0E7EBF5E09F
:103510009481392F3795332737959381930F6FEF28
:103520007FEF4F5F40930801042E000C550BFA010A
:10353000EE0FFF1FEE0FFF1F4E0F5F1FFA01E75048
:10354000FA4F80837283618393832483BAC310917B
:10355000080111168CF4612F012E000C770B6F5FA0
:103560007F4F161617060CF04EC09091F90589177B
:1035700009F4A3C390E012C08FEF80930801A1C3A8
:10358000F901EE0FFF1FEE0FFF1F2E0F3F1FF90176
:10359000E750FA4F2081821709F490C39F5F292FCB
:1035A00030E02617370764F390E088C3983028F599
:1035B000A9014F5F5F4FDA01AA0FBB1FAA0FBB1F04
:1035C000A40FB51FA750BA4F8C91F901EE0FFF1F42
:1035D000EE0FFF1F2E0F3F1FF901E750FA4F8083B8
:1035E00011962D913C9112973283218313968C91E1
:1035F0001397838314968C9184839F5F292F30E0E7
:10360000261737079CF21150109308015AC3123045
:1036100080F0E7EBF5E02281818190E0B0E82B9F1C
:10362000800D911D1124009721F090932503809324
:10363000240380912303811144C3E9DC42C380EF5A
:10364000D5D98AE6D3D913EF8FE70FE706C0163036
:1036500010F4812F01C0802F1F5FC8D91630B9F731
:1036600087EFC4D92EC3E7EBF5E08281218130E0FA
:10367000E0E88E9F200D311D11243093200120930E
:103680001F012115310509F41CC388E290E0B9013E
:103690000E94732870931C0360931B0380ED97E0D6
:1036A000B9010E94732870937C0260937B0209C366
:1036B000153008F406C31091B8058EEF810F8231E2
:1036C00008F0FFC2E7EBF5E08581448150E030E887
:1036D000839F400D511D11248381628170E090E829
:1036E000899F600D711D1124812F0E948C0E64E052
:1036F00070E0812FA8D4E5C2E7EBF5E091818281EB
:10370000911117C09681258130E0A0E89A9F200D85
:10371000311D1124032E000C440B550B9481638141
:1037200070E0B0E89B9F600D711D11240E94830F13
:10373000C8C2913009F0C5C220E030E0A90160E0C4
:1037400070E00E94830FBDC22091210330912203BB
:10375000263031050CF0B5C2E7EBF5E081818093AE
:103760002003928190931F03D901AA0FBB1FAA0FB8
:10377000BB1FA85BBA4F6481438150E0E0E86E9FB5
:10378000400D511D1124052E000C660B770B4D9337
:103790005D936D937C931397F901E05AFA4F808300
:1037A000F901EE5BFA4F90836CE070E04CD46CE072
:1037B00070E080911F0347D48091210390912203F0
:1037C000019690932203809321037BC2209177027C
:1037D00030917802263031050CF045C0E7EBF5E07A
:1037E00081819281492F50E04631510531F441E009
:1037F000F901E651FB4F40830DC04B30510531F4C8
:103800004AE0F901E651FB4F408304C08BE691E0AA
:10381000C7DA57C2F901EC51FB4F8083F901E2523C
:10382000FB4F90836FE070E00ED48091770290910F
:1038300078020E94FC0C892B09F043C26091770248
:10384000709178026F5F7F4F709378026093770278
:1038500080917B0290917C020E94872870937C0269
:1038600060937B022EC280EA91E09ADA2AC28091AC
:10387000B805FE0131969FE7DF011D929A95E9F7A1
:103880008E3091F50E946211F12C11E0812F0E947F
:10389000AC1381E00E94B613811108C0E1E0F0E0B2
:1038A000EC0FFD1FEF0DF11D1083F3941F5F1F3709
:1038B00069F780EF9BD88DE099D88EE097D88F2D4F
:1038C00095D8FF2071F08E010F5F1F4FF801EF0DAB
:1038D000F11D7F01D8018D918D0188D8E016F10688
:1038E000C9F787EF83D8EDC18111B7C08091B905C1
:1038F000813009F04FC0E091BA05E093C904F0E0CF
:10390000E552FE4F2081822F90E0969587959695FF
:10391000879596958795FC01EE0FFF1F8E0F9F1FD1
:10392000FC01B096277081E090E002C0880F991FDB
:103930002A95E2F78095918198239183928189233A
:1039400082830E941B018091C904823081F480919E
:1039500028038111B6C181E080932803F894E89A86
:10396000E9E6F0E08081826080837894AAC18330A8
:1039700009F0A7C1809127038111A3C181E0809341
:103980002703F894E99AE9E6F0E080818860808373
:10399000789497C1811195C1E7EBF5E0448150E03F
:1039A00060E070E0032E3CE1440F551F661F771F57
:1039B0003A95D1F7302D9581892F90E0A0E0B0E0C5
:1039C000072E75E1880F991FAA1FBB1F7A95D1F7A3
:1039D000702D842B952BA62BB72B468150E060E0F1
:1039E00070E0032E3EE0440F551F661F771F3A9587
:1039F000D1F7302D482B592B6A2B7B2B878190E0F8
:103A0000A0E0B0E0880F991FAA1FBB1F880F991F65
:103A1000AA1FBB1F880F991FAA1FBB1F880F991FC2
:103A2000AA1FBB1F880F991FAA1FBB1F880F991FB2
:103A3000AA1FBB1F880F991FAA1FBB1F842B952B82
:103A4000A62BB72B20852F77BC01CD01622B20E25E
:103A500030E043810E945A0334C1873109F031C1FB
:103A60008091B905811126C0E7EBF5E0F380048170
:103A7000B0E80B9F8001112485818F77082B80EFA0
:103A80000E94F6148DE00E94F61487E10E94F6145D
:103A900022E54FEFB8018F2D0E94BA04811103C0B7
:103AA0000E94F61403C081E00E94F61487EF0E9482
:103AB000F61407C1813009F047C0E7EBF5E0008557
:103AC00010E020E030E00F2EF5E1000F111F221F63
:103AD000331FFA95D1F7F02D818590E0A0E0B0E09A
:103AE000072E7EE0880F991FAA1FBB1F7A95D1F77A
:103AF000702D082B192B2A2B3B2B828590E0A0E000
:103B0000B0E0689416F8880F991FAA1FBB1F16947F
:103B1000D1F7082B192B2A2B3B2B83858F77082B6A
:103B2000468170E8479FA001112487818F77482B39
:103B3000648180E8689FB001112485818F77682BAC
:103B400083810E94C508BDC0823039F4E7EBF5E0FF
:103B5000648183810E94A207B4C0833009F078C0D9
:103B6000E7EBF5E0C484D12CE12CF12C0B2EB5E170
:103B7000CC0CDD1CEE1CFF1CBA95D1F7B02D858551
:103B800090E0A0E0B0E0072E7EE0880F991FAA1F0A
:103B9000BB1F7A95D1F7702DC82AD92AEA2AFB2AA9
:103BA000868590E0A0E0B0E0689416F8880F991F31
:103BB000AA1FBB1F1694D1F7C82AD92AEA2AFB2AC2
:103BC00087858F77C82A008510E020E030E00F2E2F
:103BD000F5E1000F111F221F331FFA95D1F7F02DC9
:103BE000818590E0A0E0B0E0072E7EE0880F991F6D
:103BF000AA1FBB1F7A95D1F7702D082B192B2A2BE2
:103C00003B2B828590E0A0E0B0E0689416F8880F26
:103C1000991FAA1FBB1F1694D1F7082B192B2A2B0B
:103C20003B2B83858F77082B468190E8499FA00125
:103C3000112487818F77482B6481A0E86A9FB001A7
:103C4000112485818F77682B83810E944A0939C0AE
:103C5000843039F4E7EBF5E0648183810E94710AD6
:103C600030C0853039F4E7EBF5E0648183810E9450
:103C7000F50A27C08630D1F4E7EBF5E0018510E0C6
:103C8000208530E04681B0E84B9FA0011124878158
:103C90008F77482B648180E8689FB001112485816B
:103CA0008F77682B83810E941B0C0BC0873049F4EF
:103CB0008091BA050E941D0904C090E0292F30E0D0
:103CC00075CCC158DF4F0FB6F894DEBF0FBECDBF25
:103CD000DF91CF911F910F91FF90EF90DF90CF90E8
:103CE00008951F93CF93DF93182FEB018091220645
:103CF00090E068177907A0F0E091C004F091C1044A
:103D0000309799F081E08093B6058091C704909137
:103D1000C80409958091220690E0C817D90738F4A5
:103D2000C954DA4F188380E003C081E001C081E00C
:103D3000DF91CF911F910895CF92DF92EF92FF9282
:103D40001F93CF93DF93909121069923A9F0873F8A
:103D500021F410922106E8DA68C160916D05709136
:103D60006E05BFDF80916D0590916E050196909371
:103D70006E0580936D0559C16091F7057091F80546
:103D80006115710509F40CC188230CF409C1615057
:103D900071097093F8056093F705A3DF8091F7052B
:103DA0009091F805892B09F040C180916C0588231A
:103DB00009F43BC1803D09F4E6C030F48039B1F12B
:103DC000803C09F4B9C0E9C0843F09F453C0853F81
:103DD00009F4A2C0803E09F0E0C0C091B005C43132
:103DE00008F0DBC0E7EBF5E09181977080818F7779
:103DF000E82EF12C40E8949FE00CF11C1124D281B4
:103E00008C2F1BD1833039F0843009F0C6C0C70134
:103E10000E941F0FC2C08EEF8C0F823108F0BDC010
:103E20006D2F6F77A7018C2FFED2B7C0E7EBF5E0BF
:103E30008081E180F12C50E8859FE00CF11C112479
:103E40001091B005110F110F110FC0E0D0E0CC247C
:103E5000C394D12CB6010C2E02C0660F771F0A94B2
:103E6000E2F76E21812FE8D121961F5FC830D1057E
:103E700089F793C0E7EBF5E0D081ED2EF12CC181FD
:103E80008C2FDBD08F3709F488C08EEF8C0F8231F6
:103E900078F5E114F10421F09BE0E916F104A1F4B6
:103EA000EC2FE695E695E695F0E0E759FA4F2C2FD2
:103EB000277081E090E002C0880F991F2A95E2F7F1
:103EC0009081892B808314C0EC2FE695E695E695CA
:103ED000F0E0E759FA4F2C2F277081E090E002C004
:103EE000880F991F2A95E2F7809590818923808316
:103EF000B7018C2FA8D0D23009F04FC0CE5081E04E
:103F000090E002C0880F991FCA95E2F790912603AE
:103F1000892B8093260341C0C091B8058EEF8C0F8A
:103F20008231D8F5D091B7058C2F87D08130A9F593
:103F30006D2F8C2F81D131C08091B005863068F50E
:103F40009091B705911110C021E030E0A90102C0A5
:103F5000440F551F8A95E2F7CA0180959091260378
:103F600089238093260319C021E030E0A90102C013
:103F7000440F551F8A95E2F7CA0190912603892BB9
:103F8000809326030AC0E091B005E33030F4F0E0FE
:103F9000EA59FA4F8091B705808310926C0545C0AD
:103FA000803F28F4982F9F709093B005807F803ECB
:103FB00079F038F4803C49F1803D39F18039A9F538
:103FC00011C0843F79F0853FB1F0803F71F526C084
:103FD00083E090E09093F8058093F70580EE80935E
:103FE0006C0523C022E030E03093F8052093F705FC
:103FF00080936C051AC082E090E09093F80580935E
:10400000F70585EF80936C0510C021E030E0309318
:10401000F8052093F70580936C0507C081E0809335
:10402000210610926E0510926D05DF91CF911F91C0
:10403000FF90EF90DF90CF900895E82FF0E0ED5DD6
:10404000F94F80810895282F30E0F901ED5DF94F97
:1040500090819F3709F4EFC0F901ED5DF94F60835E
:1040600062307105A1F044F461157105B1F1613060
:10407000710509F478C008956430710509F4B9C078
:104080000CF494C06B30710509F44AC008958E5049
:10409000863008F0D0C0F901EF5DFD4F2081822FFE
:1040A00090E0969587959695879596958795FC01CE
:1040B000EE0FFF1FE80FF91FB096277081E090E028
:1040C00002C0880F991F2A95E2F780959181982365
:1040D00091839281892382830895F901EF5DFD4FD9
:1040E0008081E82FF0E0F695E795F695E795F6954F
:1040F000E7959F01220F331FE20FF31FB096282F81
:10410000277081E090E002C0880F991F2A95E2F79E
:104110008095918198239183928189238283089548
:10412000F901EF5DFD4FE0812E2F277081E090E0D7
:1041300002C0880F991F2A95E2F7F0E0F695E795FF
:10414000F695E795F695E7959F01220F331FE20F4D
:10415000F31FB096982F909521819223918392819D
:10416000892B82830895F901EF5DFD4FE0812E2FA9
:10417000277081E090E002C0880F991F2A95E2F72E
:10418000F0E0F695E795F695E795F695E7959F01AA
:10419000220F331FE20FF31FB096982F90952281C4
:1041A000922392839181892B81830895F901EF5D98
:1041B000FD4FE0812E2F277081E090E002C0880F34
:1041C000991F2A95E2F7F0E0F695E795F695E795C1
:1041D000F695E7959F01220F331FE20FF31FB0966C
:1041E000982F90952281922392839181892B8183AC
:1041F0000895F901EF5DFD4FE0812E2F277081E0DA
:1042000090E002C0880F991F2A95E2F7F0E0F6953A
:10421000E795F695E795F695E7959F01220F331FF1
:10422000E20FF31FB096982F9095228192239283EC
:104230009181892B81830895E82FF0E0EF5DFD4F98
:10424000E0819E2F977021E030E0A90102C0440F69
:10425000551F9A95E2F7CA01F0E0F695E795F695B5
:10426000E795F695E7959F01220F331FE20FF31FA5
:10427000B096342F30952281232322832181242B51
:104280002183662321F09281892B82830895828184
:10429000382332830895E82FF0E0EF5DFD4FE08191
:1042A0002E2F277081E090E002C0880F991F2A9579
:1042B000E2F7F0E0F695E795F695E795F695E79540
:1042C0009F01220F331FE20FF31FDF019096982FFB
:1042D000909511962C911197292311962C93119753
:1042E00012962C911297922312969C9390A1982348
:1042F00081E009F480E00895EAE7F0E090819064BD
:104300009083908194FFFDCF806480937C00EAE7E6
:10431000F0E0808180648083808186FDFDCF809184
:104320007800909179000895482F50E0FA01EF5DF0
:10433000FD4FE0819E2F977021E030E002C0220FF8
:10434000331F9A95E2F7F0E0F695E795F695E79535
:10435000F695E795DF01AA0FBB1FEA0FFB1FB0968A
:10436000922F90953281932392839181292B2183DF
:10437000611102C061CF08956F3F19F461E05CCF15
:104380000895FA01E55FFE4F90819330B9F028F46B
:10439000913051F0923069F03EC0973061F1983021
:1043A00091F19430C1F515C084B5806884BD67BDB6
:1043B000089584B5806284BD68BD0895E0E8F0E0AA
:1043C00080818068808370E07093890060938800AA
:1043D0000895E0E8F0E080818062808381E06F3FB3
:1043E00008F480E090E091958195910990938B007D
:1043F00080938A000895E0EBF0E0808180688083FC
:104400006093B3000895E0EBF0E0808180628083E8
:104410006093B400089566231CF060E00DCF08950A
:1044200061E00ACF08953F924F925F926F927F9220
:104430008F929F92AF92BF92CF92DF92EF92FF92B4
:104440000F931F93CF93DF93C82F8BEF8C0F823086
:1044500050F42FEF629FC001112464E670E057D63C
:104460008C2F62DF0CC1D0E0FE01EF5DFD4F80813B
:10447000982F977021E030E0690102C0CC0CDD1C60
:104480009A95E2F790E096958795969587959695FB
:1044900087958C01000F111F080F191F005E1F4F19
:1044A0003C2C3094F80182818321828381818C2984
:1044B0008183FE01E295F295F07FFE27E07FFE27E3
:1044C000E75DFC4F88EC90E09387828787E390E07C
:1044D000958784874115510559F0FE01E295F295C3
:1044E000F07FFE27E07FFE27E75DFC4F5387428782
:1044F000662361F0FE01E295F295F07FFE27E07FF2
:10450000FE27E75DFC4F70E075876487C295D29502
:10451000D07FDC27C07FDC27C75DDC4FEE24E3942F
:10452000F12CFF86EE862A853B85032E000C440B7A
:10453000550B0F2EF0E98F2EF0ED9F2EF3E0AF2EEE
:10454000B12CF02DC501B40117D6CA01B9016150D3
:1045500071098109910942D420E030E048EC52E42D
:10456000A2D32B013C016C857D85072E000C880BA6
:10457000990B34D49B01AC01C301B201F9D45BD5D2
:10458000FAD3798368832A853B85032E000C440B7C
:10459000550BC501B401F0D5CA01B90161507109CB
:1045A000810991091BD420E030E048EC52E47BD330
:1045B0004B015C018C859D8564E670E0681B790B7E
:1045C000072E000C880B990B09D49B01AC01C50187
:1045D000B401CED430D5CFD37B836A8388819981CF
:1045E0009D838C83FF82EE821986188681E090E09D
:1045F000892B29F0F8018281C82AC28204C0F801FF
:10460000828138223282E7E3F3E040E050E080E04C
:1046100090E0208131812130310549F4DA01AA0F7F
:10462000BB1FA95CB94F8D939C934F5F5F4F019661
:1046300070968431910569F750936A044093690438
:10464000F89410928000E1E8F0E01082109285006A
:104650001092840081E090E090938900809388001C
:104660008081886080838081816080838081826096
:104670008083EFE6F0E08081846080837894DF912E
:10468000CF911F910F91FF90EF90DF90CF90BF904F
:10469000AF909F908F907F906F905F904F903F90E2
:1046A00008951F920F920FB60F921124AF92BF92EE
:1046B000DF92EF92FF920F931F932F933F934F93AD
:1046C0005F936F937F938F939F93AF93BF93CF939A
:1046D000DF93EF93FF930BC080916B0490916C0478
:1046E000019690936C0480936B040E94FF140E94C7
:1046F000F0148111F1CF6091370670913806409126
:10470000690450916A04141615060CF0EFC0A7E373
:10471000B6E0440F551F495C594F9D01AA24A3944C
:10472000B12CE901899199919E01FC01E295F295E4
:10473000F07FFE27E07FFE27E75DFC4F0084F185D8
:10474000E02D319709F048C0FC01EF5DFD4FD080AE
:10475000ED2DF0E0F695E795F695E795F695E7955A
:104760007F01EE0CFF1CEE0DFF1DB0967C01EE0CE0
:10477000FF1CEE0CFF1CEE0CFF1CEE0CFF1C870157
:10478000075D1C4FE801EE80FF80EF2869F0F280A2
:10479000CD2DC770850102C0000F111FCA95E2F729
:1047A000E801CF29C2830DC0D281CD2DC77075011C
:1047B00002C0EE0CFF1CCA95E2F7CE2DC095CD23AA
:1047C000C283FC01E295F295F07FFE27E07FFE2791
:1047D000E75DFC4F11861086EC01C295D295D07F23
:1047E000DC27C07FDC27C75DDC4FFB01E295F2953B
:1047F000F07FFE27E07FFE27E75DFC4F0C80DD8128
:10480000C02D0480F581E02DEC17FD070CF0BC01F4
:104810004217530709F085CF75C08D919D91FC011A
:10482000E295F295F07FFE27E07FFE27E75DFC4FE3
:1048300024813581261B370B35832483232B09F0F4
:1048400048C0FC01E295F295F07FFE27E07FFE274D
:10485000E75DFC4F268137812130310571F4FC0181
:10486000E295F295F07FFE27E07FFE27E75DFC4FA3
:1048700022813381358324830DC0FC01E295F295BA
:10488000F07FFE27E07FFE27E75DFC4F208131812E
:1048900035832483EC01C295D295D07FDC27C07F7D
:1048A000DC27C75DDC4F2E813F81FC01FF27E295AD
:1048B000F295F07FFE27E07FFE27E75DFC4F008743
:1048C0001187902F812F232B11F09E2D8F2D9E83EA
:1048D0008F834A175B0709F0A0CF7093890060931C
:1048E000880010928500109284001CC06295729519
:1048F000707F7627607F7627FB01E75DFC4F648140
:104900007581EBCF62957295707F7627607F7627F1
:10491000FB01E75DFC4F6481758101E010E0E12C53
:10492000F12C7BCFFF91EF91DF91CF91BF91AF91B0
:104930009F918F917F916F915F914F913F912F91B7
:104940001F910F91FF90EF90DF90BF90AF900F906D
:104950000FBE0F901F9018952FB7F89460916E04BA
:1049600070916F0480917004909171042FBF08952D
:104970001F920F920FB60F9211242F933F938F9394
:104980009F93AF93BF9380916E0490916F04A09119
:104990007004B091710430916D0423E0230F2D3722
:1049A00020F40196A11DB11D05C026E8230F029633
:1049B000A11DB11D20936D0480936E0490936F042C
:1049C000A0937004B0937104809172049091730469
:1049D000A0917404B09175040196A11DB11D80933E
:1049E000720490937304A0937404B0937504BF9100
:1049F000AF919F918F913F912F910F900FBE0F908C
:104A00001F9018951F920F920FB60F9211242F939B
:104A10004F935F938F939F93EF93FF932091C600E3
:104A20008091760490917704AC014F5F5F4F509373
:104A3000770440937604FC01E856FB4F2083FF91F6
:104A4000EF919F918F915F914F912F910F900FBE9A
:104A50000F901F901895E1ECF0E0808180688083D2
:104A6000808180618083E2ECF0E0808184608083DB
:104A70008081826080830895CF93DF93CDB7DEB7C6
:104A800027970FB6F894DEBF0FBECDBF80E091EE42
:104A9000A0E0B0E089839A83AB83BC8383E08D83FD
:104AA0001E821F82BE016F5F7F4F80EC90E00E94EC
:104AB0008D150E94C414789484B5826084BD84B539
:104AC000816084BD85B5826085BD85B5816085BD09
:104AD000EEE6F0E0808181608083E1E8F0E0108222
:104AE000808182608083808181608083E0E8F0E063
:104AF000808181608083E1EBF0E08081846080834D
:104B0000E0EBF0E080818160808387E880937A0029
:104B10000E940D170E946E0F9EDF0E941F172091AA
:104B20007604309177042115310511F164F0E8E93C
:104B3000F4E0A8E7B4E0A90148565B4F81918D935A
:104B4000E417F507D9F7109277041092760433270B
:104B5000121613066CF408E714E0C90188589B4F3D
:104B60007C01F80181918F01E7D80E151F05C9F767
:104B7000F3DE60935F067093600680936106909306
:104B80006206C0906306D0906406E0906506F090DF
:104B9000660600911F011091200120E030E0DC0149
:104BA000CB018C199D09AE09BF09081719072A07FF
:104BB0003B0708F0B2CF0C0D1D1D2E1D3F1D0093AD
:104BC00063061093640620936506309366060E9480
:104BD00092180E941D180E9494179FCF5058BB270F
:104BE000AA270ED08BC17CD130F081D120F031F4D6
:104BF0009F3F11F41EF471C10EF4E095E7FB67C10D
:104C0000E92F8DD180F3BA176207730784079507E0
:104C100018F071F49EF5A5C10EF4E0950B2EBA2F95
:104C2000A02D0B01B90190010C01CA01A0011124B2
:104C3000FF27591B99F0593F50F4503E68F11A165E
:104C4000F040A22F232F342F4427585FF3CF4695EF
:104C500037952795A795F0405395C9F77EF41F1611
:104C6000BA0B620B730B840BBAF09150A1F0FF0FDB
:104C7000BB1F661F771F881FC2F70EC0BA0F621FC7
:104C8000731F841F48F4879577956795B795F795B7
:104C90009E3F08F0B3CF9395880F08F09927EE0F49
:104CA0009795879508950CD029C121D140F018D14E
:104CB00030F021F45F3F19F00AC1511153C10DC109
:104CC0002ED198F39923C9F35523B1F3951B550BB6
:104CD000BB27AA2762177307840738F09F5F5F4FCF
:104CE000220F331F441FAA1FA9F333D00E2E3AF010
:104CF000E0E830D091505040E695001CCAF729D02A
:104D0000FE2F27D0660F771F881FBB1F2617370778
:104D10004807AB07B0E809F0BB0B802DBF01FF27A8
:104D200093585F4F2AF09E3F510568F0D0C01AC1DA
:104D30005F3FECF3983EDCF3869577956795B795E2
:104D4000F7959F5FC9F7880F911D9695879597F9FD
:104D50000895E1E0660F771F881FBB1F6217730776
:104D60008407BA0720F0621B730B840BBA0BEE1F8B
:104D700088F7E095089504D06894B111F3C00895C0
:104D8000D6D088F09F5790F0B92F9927B751A0F04F
:104D9000D1F0660F771F881F991F1AF0BA95C9F7CF
:104DA00012C0B13081F0DDD0B1E00895DAC0672FD4
:104DB000782F8827B85F39F0B93FCCF3869577957F
:104DC0006795B395D9F73EF4909580957095619568
:104DD0007F4F8F4F9F4F0895E89409C097FB3EF493
:104DE00090958095709561957F4F8F4F9F4F992338
:104DF000A9F0F92F96E9BB279395F69587957795B6
:104E00006795B795F111F8CFFAF4BB0F11F460FF75
:104E10001BC06F5F7F4F8F4F9F4F16C0882311F0CD
:104E200096E911C0772321F09EE8872F762F05C0E1
:104E3000662371F096E8862F70E060E02AF09A957C
:104E4000660F771F881FDAF7880F9695879597F971
:104E50000895E894F92F96EBFF2381F012161306BC
:104E60001406440B9395F695879577956795579516
:104E70004040FF23B9F71BC099270895882351F4B8
:104E80009850D2F7872B762F652F542F432F322F30
:104E900020E0B1F3121613061406440B88233AF0EF
:104EA0009A95440F551F661F771F881FCAF7552311
:104EB0004AF4440F551F11F460FF04C06F5F7F4F29
:104EC0008F4F9F4F880F9695879597F9089597F97B
:104ED0009F6780E870E060E008959FEF80EC0895A0
:104EE00000240A94161617061806090608950024C9
:104EF0000A9412161306140605060895092E039443
:104F0000000C11F4882352F0BB0F40F4BF2B11F4B6
:104F100060FF04C06F5F7F4F8F4F9F4F089557FD15
:104F20009058440F551F59F05F3F71F04795880F17
:104F300097FB991F61F09F3F79F0879508951216AE
:104F400013061406551FF2CF4695F1DF08C016165A
:104F500017061806991FF1CF86957105610508940B
:104F60000895E894BB2766277727CB0197F9089522
:104F70000BD0C4CFB5DF28F0BADF18F0952309F0C5
:104F8000A6CFABCF1124EECFCADFA0F3959FD1F30C
:104F9000950F50E0551F629FF001729FBB27F00DE7
:104FA000B11D639FAA27F00DB11DAA1F649F66273C
:104FB000B00DA11D661F829F2227B00DA11D621F8B
:104FC000739FB00DA11D621F839FA00D611D221F45
:104FD000749F3327A00D611D231F849F600D211D29
:104FE000822F762F6A2F11249F5750408AF0E1F0CC
:104FF00088234AF0EE0FFF1FBB1F661F771F881F15
:1050000091505040A9F79E3F510570F060CFAACF54
:105010005F3FECF3983EDCF3869577956795B795FF
:10502000F795E7959F5FC1F7FE2B880F911D969529
:10503000879597F908957BDFE0F09E37D8F0963991
:10504000B8F49E3848F4672F782F8827985FF9CFF7
:1050500086957795679593959539D0F3B62FB1706E
:105060006B0F711D811D20F487957795679593953A
:1050700002C01CC077CF882371F4772321F09850A9
:10508000872B762F07C0662311F499270DC0905106
:10509000862B70E060E02AF09A95660F771F881FD4
:1050A000DAF7880F9695879597F908959F3F31F025
:1050B000915020F4879577956795B795880F911D46
:1050C0009695879597F90895DB018F939F9385D0E7
:1050D000BF91AF91A29F800D911DA39F900DB29F94
:1050E000900D11240895AA1BBB1B51E107C0AA1FF4
:1050F000BB1FA617B70710F0A61BB70B881F991F79
:105100005A95A9F780959095BC01CD01089597FB1C
:10511000072E16F4009406D077FD08D0E4DF07FCD4
:1051200005D03EF4909581959F4F089570956195B7
:105130007F4F0895A1E21A2EAA1BBB1BFD010DC0D3
:10514000AA1FBB1FEE1FFF1FA217B307E407F50737
:1051500020F0A21BB30BE40BF50B661F771F881F13
:10516000991F1A9469F760957095809590959B01A9
:10517000AC01BD01CF010895052E97FB16F40094F4
:105180000FD057FD05D0D6DF07FC02D046F408C08B
:1051900050954095309521953F4F4F4F5F4F089563
:1051A00090958095709561957F4F8F4F9F4F089593
:1051B000EE0FFF1F0590F491E02D0994A29FB0011E
:1051C000B39FC001A39F700D811D1124911DB29F3B
:1051D000700D811D1124911D0895F0DFA59F900D84
:1051E000B49F900DA49F800D911D11240895B7FFC9
:1051F000F4CFF3DF821B930B0895DF93CF931F93BC
:105200000F939A9DF02D219FF00D8B9DF00D8A9D9F
:10521000E02DF10D039FF00D029FE00DF11D4E9D5D
:10522000E00DF11D5E9DF00D4F9DF00D7F936F938E
:10523000BF92AF925F934F93D501C0DF8B01AC015A
:10524000D701BCDFEB01E80FF91FD6011FD02F916A
:105250003F91D601B3DFC60FD71FE81FF91FAF91EB
:10526000BF9114D02F913F91A9DFC60FD71FE81F20
:10527000F91FD601A3DFE60FF71F9801BE01CF018A
:1052800011240F911F91CF91DF91089597DF460F61
:10529000571FC81FD91F08F431960895689401C09C
:1052A000E8948F929F92CF93DF9305D0DF91CF91B7
:1052B0009F908F90089588249924F401E401B0E42C
:1052C0009F93AA279A158B049C04ED05FE05CF0534
:1052D000D007A10798F4AD2FDC2FCF2FFE2FE92D9B
:1052E000982C892E982F872F762F652F542F432F98
:1052F000322F2227B85031F7BF9127C01B2EBF9104
:10530000BB27220F331F441F551F661F771F881F9F
:10531000991F881C991CEE1FFF1FCC1FDD1FAA1FA1
:10532000BB1F8A149B04EC05FD05CE05DF05A00715
:10533000B10748F08A189B08EC09FD09CE09DF097E
:10534000A00BB10B21601A94E1F62EF49401AF0189
:10535000BE01CD01000C08950F931F93CF93DF93EF
:105360008230910510F482E090E0E0916906F091BE
:105370006A0620E030E0A0E0B0E0309719F140810B
:1053800051810281138148175907C8F08417950786
:1053900069F4109731F012960C93129713961C93A0
:1053A00027C00093690610936A0622C021153105B3
:1053B00019F04217530718F49A01BD01EF01DF01FC
:1053C000F801DBCF21153105F9F0281B390B24300A
:1053D000310580F48A819B816115710521F0FB0103
:1053E0009383828304C090936A0680936906FE01CA
:1053F000329644C0FE01E20FF31F81939193225035
:105400003109398328833AC02091670630916806B4
:10541000232B41F42091020130910301309368065F
:10542000209367062091000130910101211531057B
:1054300041F42DB73EB74091040150910501241B62
:10544000350BE0916706F0916806E217F307A0F4C8
:105450002E1B3F0B2817390778F0AC014E5F5F4FCA
:105460002417350748F04E0F5F1F5093680640938E
:1054700067068193919302C0E0E0F0E0CF01DF91F5
:10548000CF911F910F910895CF93DF93009709F467
:1054900081C0FC01329713821282A0916906B091FB
:1054A0006A06109781F420813181820F931F209129
:1054B0006706309168062817390751F5F09368069A
:1054C000E093670667C0ED0120E030E0CE17DF070C
:1054D00040F44A815B819E0141155105F1F0EA01DA
:1054E000F5CFD383C28340815181840F951FC817A4
:1054F000D90759F488819981840F951F0296918369
:1055000080838A819B81938382832115310529F4CD
:10551000F0936A06E09369063DC0E901FB83EA83E4
:1055200049915991C40FD51FEC17FD0761F4808193
:105530009181840F951F0296E90199838883828166
:1055400093819B838A83E0E0F0E012968D919C9199
:105550001397009719F0FD01DC01F7CF8D919C9115
:1055600011979D012E5F3F4F820F931F2091670679
:10557000309168062817390769F4309729F410929A
:105580006A061092690602C013821282B0936806FE
:10559000A0936706DF91CF910895DC0101C06D9360
:0C55A00041505040E0F70895F894FFCF10
:1055AC0000006B0620000CFFFF210100000008002A
:1055BC0002010000030407000000000000000013BB
:1055CC00004446526F626F74206669726D6174613B
:1055DC00000018191A1B1C1D1E1F08090A0B0C0DA4
:1055EC0010111213141518191A1B1C1D1E1F080953
:1055FC000A0B0C0D101112131415746F6F206D61C2
:10560C006E792071756572696573004552524F52FF
:10561C003A20554E4B4E4F574E2053454E534F52FA
:10562C0020545950452C2056414C49442053454E4A
:10563C00534F5253204152452031312C20323200ED
:10564C004448545F434F4E464947204572726F722F
:10565C003A204578636565646564206E756D626596
:10566C0072206F6620737570706F7274656420445D
:10567C00485420646576696365730018191A1B1CFD
:10568C001D1E1F08090A0B0C0D1011121314150105
:10569C0002040810204080010204081020010204BA
:1056AC0008102000000000250028002B0004040432
:1056BC0004040404040202020202020303030303AF
:1056CC000318191A1B1C1D1E1F08090A0B0C0D10A0
:0656DC0011121314150069
:00000001FF
