:1000000059C100000C941F1C0C94751C70C1000099
:100010006EC100006CC100006AC1000068C1000030
:1000200066C1000064C100000C94EA170C948116AC
:100030005EC100005CC100005AC1000058C1000050
:1000400056C100000C94200F52C1000050C10000A6
:100050004EC100004CC100004AC100000C94A02712
:1000600046C1000044C1000042C1000040C1000080
:100070003EC100003CC100003AC1000038C1000090
:1000800036C100000C94392632C1000030C1000096
:100090000C945D122CC100002AC1000028C1000090
:1000A00026C1000024C1000022C1000062136513B4
:1000B0006513651365136513651365137D12651369
:1000C0006513651365136513651365137D12651359
:1000D0006513651365136513651365138512651341
:1000E000651365136513651365136513AA1265130C
:1000F0006513651365136513651365138512651321
:10010000651365136513651365136513AF126513E6
:10011000651365136513651365136513B4126513D1
:10012000651365136513651365136513C5126513B0
:10013000651365136513651365136513EE12651377
:10014000651365136513651365136513B91265139C
:10015000651365136513651365136513D312651372
:10016000651365136513651365136513F012651345
:10017000651365136513651365136513F012651335
:10018000651365136513651365136513F012651325
:10019000651365136513651365136513F012651315
:1001A000651365136513651365136513F9126513FC
:1001B00065136513651365136513651329136513BB
:1001C000651365136513651365136513F9126513DC
:1001D000651365136513651365136513291365139B
:1001E00065136513651365136513651311136513A3
:1001F0006513651365136513651365132D13651377
:100200006513651365136513651365132D13651366
:100210006513651365136513651365134213651341
:100220006513651365136513651365135C13651317
:100230006513651365136513651365135C13080B6C
:100240000002020201000904000001020200000590
:1002500024001001052401010104240206052406DE
:1002600000010705810310004009040100020A0093
:10027000000007050202400000070583024000005D
:1002800012010002EF020140412336800001010209
:10029000030141726475696E6F204C4C43004172DA
:1002A0006475696E6F204C656F6E6172646F0004D7
:1002B0000309040011241FBECFEFDAE0DEBFCDBF7B
:1002C00012E0A0E0B1E0E0EEFAE502C005900D9288
:1002D000A034B107D9F726E0A0E4B2E001C01D9236
:1002E000A135B207E1F70E94EA270C946E2D88CE63
:1002F000FC0190819E5F908342E450E06EE372E0E7
:1003000080E80C9424160895EEEFFFE725913491D0
:1003100081E02B3F3C4D09F080E00895CF93DF93BF
:10032000CDB7DEB728970FB6F894DEBF0FBECDBFAE
:10033000E22F29833A834B835C836D837E838F8393
:100340009887E13A61F4313209F086C047E050E025
:100350006CE071E080E00E94241681E084C0E1320C
:1003600009F07CC08B81333279F42C8190E0922BA0
:10037000A0E0B0E08093080190930901A0930A01E6
:10038000B0930B0181E06FC0303241F467E070E060
:100390008CE091E00E944D1681E065C0323209F098
:1003A0005FC080931301B0DF882319F0EEEFFAE00D
:1003B00002C0E0E0F8E080910C0190910D01A09165
:1003C0000E01B0910F01803B9440A105B10531F5BC
:1003D0008091130180FD22C0EE3F4AE0F40751F006
:1003E00080819181873727E7920721F09093FF0A58
:1003F0008093FE0A87E797E791838083809160006E
:10040000809340029BE088E10FB6F894A895809312
:1004100060000FBE9093600081E025C080819181D3
:1004200087379747F9F4A895A0E6B0E08C918861EA
:100430008C93809140028C93EE3F8AE0F80741F064
:100440008091FE0A9091FF0A9183808381E00BC026
:100450001182108281E007C080E005C080E003C007
:1004600081E001C081E028960FB6F894DEBF0FBE90
:10047000CDBFDF91CF91089520911301222389F000
:10048000AB01BC0183E00E944315181619068CF0DD
:1004900081E090E0909307018093060180E090E076
:1004A000089581E090E0909307018093060180E039
:1004B00090E00895CF93DF931F92CDB7DEB7898385
:1004C00061E070E0CE010196D7DF0F90DF91CF9110
:1004D00008951092800085E0809381001092820040
:1004E000109285001092840010926F000895809100
:1004F000410290914202A0914302B0914402892BA3
:100500008A2B8B2B09F46BC080EF0E94A0188DE022
:100510000E94A01880E00E94A0188091BB040E9455
:10052000A018809141028F770E94A018809141020B
:1005300090914202A0914302B0914402689416F84F
:10054000B695A795979587951694D1F78F770E94C2
:10055000A0188091410290914202A0914302B09173
:100560004402072E7EE0B695A795979587957A95D4
:10057000D1F7702D8F770E94A01880914102909141
:100580004202A0914302B0914402072E75E1B69554
:10059000A795979587957A95D1F7702D8F770E94BB
:1005A000A0188091410290914202A0914302B09123
:1005B0004402072E7CE1B695A795979587957A9585
:1005C000D1F7702D0E94A01887EF0E94A0181092FA
:1005D0004102109242021092430210924402089586
:1005E0008091BB040E947F248823D1F3E4E8F0E0EB
:1005F0008081918190934A028093490211821082F6
:100600008091490290914A0207970497F8F48091EB
:10061000BB040E947F248111FACFE4E8F0E08081DE
:10062000918190934A0280934902118210828091B5
:10063000490290914A029C0127503109243031052A
:1006400038F04997039730F08FEF08958FEF0895B2
:1006500080E0089581E008950F931F93CF93DF9377
:1006600010924102109242021092430210924402F0
:10067000C8E0D0E0B5DF81114DC02197D9F7C6E0C1
:10068000D0E0AEDF813009F045C02197D1F7A8DF77
:10069000811140C0A5DF813009F03CC0CFE0D0E03F
:1006A00001E010E09DDF8130F9F4C8010C2E02C09A
:1006B000880F991F0A94E2F7092E000CAA0BBB0BB6
:1006C0004091410250914202609143027091440274
:1006D000842B952BA62BB72B80934102909342023B
:1006E000A0934302B09344022197E0F68091410227
:1006F00090914202A0914302B0914402AA27BB27E5
:10070000A350BF4F8093410290934202A0934302B3
:10071000B0934402DF91CF911F910F910895CF9331
:10072000DF938093BB041092850010928400C4E88C
:10073000D0E012C0888199818B31964068F080E0CA
:100740009FEFA0E0B0E08093410290934202A0931B
:100750004302B093440251C08091BB040E947F24A5
:100760008111E8CF10928500109284008091BB0423
:100770000E947F248823D1F3E4E8F0E08081918116
:1007800090934A028093490211821082809149021B
:1007900090914A028C589109049778F58091BB0496
:1007A0000E947F248111FACFE4E8F0E080819181FA
:1007B00090934A02809349021182108280914902EB
:1007C00090914A029C01245431092530310510F4DE
:1007D00043DF13C08297039780F48091BB040E948B
:1007E0007F248823D1F3E4E8F0E080819181909325
:1007F0004A028093490211821082DF91CF910895BD
:100800008F929F92AF92BF92CF92DF92EF92FF9220
:100810001F93CF93DF936C01162F0E94B1194B01E8
:100820005C01C5E4D2E00D2C000CEE08FF0861E08D
:10083000812F0E945024888199810E94191A60E0BA
:10084000812F0E945024888199810E94191A0E9448
:10085000B119DC01CB0188199909AA09BB098C15CA
:100860009D05AE05BF0518F3DF91CF911F91FF9055
:10087000EF90DF90CF90BF90AF909F908F900895B2
:100880008F929F92AF92BF92CF92DF92EF92FF92A0
:100890006C01F62E0E94B1194B015C0160E08F2DB6
:1008A0000E9450240D2C000CEE08FF080E94B11984
:1008B000DC01CB0188199909AA09BB098C159D0592
:1008C000AE05BF0598F3FF90EF90DF90CF90BF90FB
:1008D000AF909F908F900895E62FF0E0E85CFE4F78
:1008E000E0819E2F977041E050E09A0102C0220FF4
:1008F000331F9A95E2F7F0E0F695E795F695E795C0
:10090000F695E795BF01660F771FE60FF71FB096C4
:10091000922F90953281932392839181292B218369
:10092000682F70E0CA010E94212B072E000C880B53
:10093000990B0E94882920E030E04AE754E40E94A5
:10094000522A20E030E040EC50E40E9489280E94C6
:100950005529609345027093460280934702909315
:1009600048020895AF92BF92CF92DF92EF92FF922A
:100970001F93CF93DF936B017C01142F5901642FD8
:1009800086E2AADF612F88E293E23ADF612F84E9F1
:1009900091E176DF1A141B04ECF4C0E0D0E0FF20F4
:1009A0004CF4612F80E392E02BDF612F80E496E02E
:1009B00067DF08C0612F80E392E022DF612F80E3D0
:1009C00092E05EDFCC0CDD1CEE1CFF1C2196AC1609
:1009D000BD0629F7612F80E392E012DF612F80E0EE
:1009E00090E04EDFDF91CF911F91FF90EF90DF906D
:1009F000CF90BF90AF900895AF92BF92CF92DF9209
:100A0000EF92FF920F931F93CF93DF936C01C62F4A
:100A1000D0E0FE01EE0FFF1FEB59FD4F8081918169
:100A2000009749F00E94DE2CFE01EE0FFF1FEB59EC
:100A3000FD4F11821082FE01EE0FFF1FE55BFD4F9F
:100A400080819181009749F00E94DE2CFE01EE0F1B
:100A5000FF1FE55BFD4F118210829091AE048091E3
:100A6000C204981719F084E090E002C083E090E09F
:100A70008C9D80018D9D100D9C9D100D1124109357
:100A8000B0040093AF04C8010E94462C7C01FE0113
:100A9000EE0FFF1FEB59FD4F91838083892BF9F0F7
:100AA000C8010E94462C5C01FE01EE0FFF1FE55BB2
:100AB000FD4F91838083892B91F0A80160E070E065
:100AC000C7010E94672DA80160E070E0C5010E9487
:100AD000672DD092C904C092C80481E01BC0C70131
:100AE0000E94DE2CCC0FDD1FFE01EB59FD4F118261
:100AF0001082C55BDD4F888199810E94DE2C1982AE
:100B000018821092B0041092AF041092C90410928F
:100B1000C80480E0DF91CF911F910F91FF90EF907B
:100B2000DF90CF90BF90AF90089541E02091AE0448
:100B30009091C204291340E0382F329536953695AE
:100B400033703093AE04982F92959F70937090936A
:100B5000C204282F2695269523702093B70483700E
:100B60008093BE04E62FF0E0EE0FFF1FEB59FD4F20
:100B70000190F081E02DEF2B51F081E0391380E0FE
:100B8000481729F08091C8049091C90435CF089581
:100B9000662321F1E82FF0E0E45BFE4FE0812E2F89
:100BA000277081E090E002C0880F991F2A95E2F734
:100BB000F0E0F695E795F695E795F695E7959F01B0
:100BC000220F331FE20FF31FB096982F90952281CA
:100BD000922392839181892B81830895E82FF0E0FD
:100BE000E45BFE4F8081E82FF0E0F695E795F695FF
:100BF000E795F695E7959F01220F331FE20FF31F4C
:100C0000B096282F277081E090E002C0880F991FCE
:100C10002A95E2F780959181982391839281892387
:100C2000828308950F931F93CF93C82F80913A0327
:100C30008F3F99F08091C3048C130FC08091C4043E
:100C40009091C5048617970741F48091C6048413D8
:100C500004C08091C704821719F1822F8B01E3EC45
:100C6000F4E0C08372836183438324834093BD0493
:100C70006C2F5BDF6C2FC801BFDEC82F882371F09B
:100C800080913A0388233CF061E082DF60E080914C
:100C90003A030E94502481E08093BC048C2F00C052
:100CA000CF911F910F910895CF93C82F8091BC04CD
:100CB000882331F080913A03882314F060E068DFE4
:100CC000C0933A038091BC04882339F061E08C2FF3
:100CD0005FDF60E08C2F0E9450248C2F90E0FC019D
:100CE000E95EFD4FE081F0E0EE0FFF1FE75FFD4F93
:100CF000208131813093C0042093BF04FC01EB506C
:100D0000FE4F80818093A904CF9108952F923F9246
:100D10004F925F926F927F928F929F92AF92BF920B
:100D2000CF92DF92EF92FF920F931F93CF93DF93B7
:100D3000CDB7DEB72C970FB6F894DEBF0FBECDBF90
:100D4000222E332E4C875B875E2C4F2C28E631E019
:100D500040E050E00E94342B6B017C01662E7D2C1C
:100D6000E982FA82852C942CA02EB12E24E68216DC
:100D70009104A104B10438F00F2EF3E68F2E912CCC
:100D8000A12CB12CF02DD501C401C297A109B04806
:100D9000880F991F99231CF491958195910924E658
:100DA00030E0281B390B032E000C440B550B622D31
:100DB000732D8C859B85643671058105910520F026
:100DC00063E670E080E090E00E94FE2A982F872F73
:100DD000762F662720E137E240E050E00E94342B76
:100DE00019012A01662D772D89819A812CE330E043
:100DF00040E050E00E94342B2A8329833CE3239F68
:100E0000C0011124092E000CAA0BBB0BA7019601EF
:100E1000281B390B4A0B5B0B942F832F722F6627ED
:100E20002CE330E040E050E00E94342B6A81617096
:100E3000862F90E0982F88279A95280F391F332303
:100E40001CF4319521953109C901330FAA0BBB0B55
:100E500040E051E060E070E09A01AB01281B390BE3
:100E60004A0B5B0BC201B1010E94FE2AC72ED82E8D
:100E7000E92EFF2489818823B9F08130F1F0823096
:100E800039F1833081F18430B9F1853009F03FC008
:100E9000CF82D886E986FA862B823C824D825E829A
:100EA000C12CD12C760133C02B823C824D825E82D4
:100EB0001F82188619861A862AC0CB82DC82ED82B0
:100EC000FE82720161011F82188619861A861FC070
:100ED000CF82D886E986FA86720161011B821C8264
:100EE0001D821E8214C02F82388649865A861B8234
:100EF0001C821D821E820BC02F82388649865A862C
:100F0000CB82DC82ED82FE82C12CD12C7601D50110
:100F1000C401880F991FAA1FBB1F6627782F892F2E
:100F20009A2F24E630E040E050E00E94342BDA01B2
:100F3000C90182199309A409B5098C019D0136954F
:100F40002795179507958B819C81AD81BE81800F78
:100F5000911FA21FB31F9927AA27BB27DC0199273E
:100F60008827C00ED11EE21EF31EFE2CED2CDC2CB9
:100F7000CC24EE24FF248C299D29AE29BF294F8142
:100F8000588569857A85400F511F621F731FBC0108
:100F9000CD01642B2C960FB6F894DEBF0FBECDBFEB
:100FA000DF91CF911F910F91FF90EF90DF90CF9045
:100FB000BF90AF909F908F907F906F905F904F9079
:100FC0003F902F9008952091C8043091C904621772
:100FD000730708F060C09091AE044091C20494136E
:100FE0002BC0E82FF0E0EE0FFF1FE55BFD4F9B01EC
:100FF000220F331F620F731F20813181260F371F8D
:101000008091B704F901E80FF11D4081F901E90F62
:10101000F11D6081862F90E0A0E0B0E0DC0199270F
:101020008827942B4091BE04F901E40FF11D208123
:10103000BC01CD01622B0895E82FF0E0EE0FFF1FF9
:10104000EB59FD4F660F771F660F771F20813181A7
:10105000260F371FF901E90FF11D5081F901E40F47
:10106000F11D6081862F90E0A0E0B0E0DC019927BF
:101070008827B52B4091BE04F901E40FF11D408192
:10108000842B4091B704F901E40FF11D2081BC01CC
:10109000CD01722B089560E070E0CB0108951F939D
:1010A000CF93DF93CDB7DEB729970FB6F894DEBFA5
:1010B0000FBECDBF182FF8DD8091AF049091B00422
:1010C0009A838983E12FF0E0EE0FFF1FEB59FD4F6C
:1010D0000190F081E02DDF01119680818B8380915A
:1010E000C104882309F43CC0E091BF04F091C0041E
:1010F00090818091A904982B9C839081809589236D
:101100008D838D81898788E08887F8945C816D81E3
:10111000E091BF04F091C0044B8138852985898115
:101120009A81508347FD252F3A952083262F39F049
:10113000441F00C000006083000000C0F2CF38E010
:101140004D9160830000019761F7F093C004E09334
:10115000BF044B83388729879A838983789440C05A
:10116000E091BF04F091C00490818091A904982B74
:101170009C839081809589238D838D818F8388E0E6
:101180008E835C816D814B813E812F8189819A8123
:10119000508347FD252F00C000C0208300C000C041
:1011A00000C000C000C060830000262F3A9541F0C7
:1011B000441F000000C000C000C000C000C0E8CF55
:1011C00038E04D9100C0608300C0019709F7F093AB
:1011D000C004E093BF044B833E832F839A838983AB
:1011E00029960FB6F894DEBF0FBECDBFDF91CF9129
:1011F0001F910895CF93DF936093BD042091C8049D
:101200003091C904232B09F44DC0282F30E0220F60
:10121000331FF901EB59FD4F60817181F901E55BE5
:10122000FD4F40815181E0E0F0E02091C20430E0C8
:10123000DB01A20FB31FEA01C20FD31F98812091D7
:10124000BD04929F900111243C932091B70430E09B
:10125000DB01A20FB31FEA01C20FD31F98812091B7
:10126000BD04929F900111243C932091BE0430E074
:10127000DB01A20FB31FEA01C20FD31F9881209197
:10128000BD04929F900111243C9331966D5F7F4F76
:101290004D5F5F4F2091C8043091C904E217F307F6
:1012A00020F2FDDEDF91CF9108952F923F924F9271
:1012B0005F926F927F928F929F92AF92BF92CF92E6
:1012C000DF92EF92FF920F93CF93DF93E091C804E8
:1012D000F091C9046E177F0708F09BC04A01AA2449
:1012E000BB24432E542E652E77249091AE04E091BA
:1012F000C2049E131BC0E82FF0E0DB01AA0FBB1F46
:10130000A60FB71FBF01660F771FFB01EB59FD4FFB
:101310000190F081E02D1F012A0E3B1EFB01E55BD1
:10132000FD4F608171816A0F7B1F3CC0E82FF0E0A8
:10133000DB01AA0FBB1FAA0FBB1FBF01660F771FE0
:10134000FB01EB59FD4F0190F081E02D1F012A0EAA
:101350003B1EFB01E55BFD4F608171816A0F7B1FC6
:10136000C52EDD24EE24FF24D101A90FB11DE0918B
:10137000BD04EE2329F0CE9EF00111249F2F01C061
:101380009C2D9C939091AE04FB01E90FF11D90916F
:10139000BD04992329F0C99ED00111249B2F01C0BF
:1013A0009C2D90839091C204FB01E90FF11D808276
:1013B0009091B704FB01E90FF11D40829091BE04AA
:1013C000FB01E90FF11D20839091BD04C92FD0E0EE
:1013D0008C9EB0018D9E700D11244C9EF0014D9E8F
:1013E000F00D11242C9FD0012D9FB00D1124909150
:1013F000C204E101C90FD11D78839091B704E101C6
:10140000C90FD11DF8839091BE04F101E90FF11DC0
:10141000B083011144DEDF91CF910F91FF90EF90E7
:10142000DF90CF90BF90AF909F908F907F906F9004
:101430005F904F903F902F9008958F929F92AF9220
:10144000BF92DF92EF92FF920F931F93CF93DF93A0
:10145000D82E48015901772314F0552344F44091C4
:10146000C8045091C9044150510960E070E046172A
:1014700057072CF4962F872FBA01492F582F8091A8
:10148000C8049091C904009721F1772314F460E017
:1014900070E0EB018617970708F4EC017A015523F9
:1014A00014F4E12CF12C8E159F0508F47C018FEFCC
:1014B000E81AF80ACE15DF0550F400E0A501940102
:1014C000BE018D2DF2DE2196CE15DF05B0F38D2DF8
:1014D000E6DDDF91CF911F910F91FF90EF90DF90AC
:1014E000BF90AF909F908F9008951F93CF93DF93FD
:1014F0002091C8043091C904232B01F1182FC82F63
:10150000D0E0CC0FDD1FFE01EB59FD4F4091AF0441
:101510005091B00460E070E0808191810E94672D5D
:10152000C55BDD4F4091AF045091B00460E070E0C6
:10153000888199810E94672D812FB1DDDF91CF9144
:101540001F9108952F923F924F925F926F927F92D8
:101550008F929F92AF92BF92CF92DF92EF92FF92C3
:101560000F931F93CF93DF93CDB7DEB727970FB6B7
:10157000F894DEBF0FBECDBF898328013901CA822E
:10158000DB82EC82FD824617570728F4962F872FBF
:10159000BA01492F582F8091C8049091C90400972F
:1015A00009F4DEC07F836E838617970710F49F834C
:1015B0008E831A018417950708F41C01F1013196F6
:1015C0002E813F81E21BF30B4A815B8148595E4FBC
:1015D000441955099A01A3E8BDE20E94782B002422
:1015E000880F991F001C880F991F001C892F902DB0
:1015F00068E671E0869F9001879F300D969F300DC1
:101600001124421B530B24E6249FC001259F900DFB
:101610001124BF010E940D2B6B014B013197B9F4CE
:10162000460E571EB20180E090E012E3E12EF12C4D
:1016300000E010E024E630E040E050E067DB9B0192
:10164000AC0100E06E817F8189812FDE87C012E3CB
:10165000E12EF12C00E010E024E630E040E050E024
:10166000C301B20153DB9B01AC0100E06E817F81BD
:1016700089811BDE6E817F816F5F7F4F7F836E83E9
:101680006215730508F056C024E6249DC001259D0F
:10169000900D1124C69E5001C79EB00CD69EB00C72
:1016A0001124A80EB91E0F2EF0E1CF2EF7E2DF2E87
:1016B000F02D960128583341369527953695279574
:1016C000ABE7B4E10E94782B969587957C0100E00A
:1016D00010E0960136952795369527950E94782B30
:1016E000969587952C01612C712C9501369527953F
:1016F000369527950E94782B96958795BC01685959
:101700007E4F80E090E0A301920100DB9B01AC01E1
:1017100000E06E817F818981C8DD8E819F81019685
:101720009F838E83A80CB91C9601690182159305CD
:1017300008F4BFCF12E3E12EF12C00E010E024E624
:1017400030E040E050E06A817B818C819D81DEDA6F
:101750009B01AC0100E0B1018981A7DD89819FDC9B
:1017600027960FB6F894DEBF0FBECDBFDF91CF91A5
:101770001F910F91FF90EF90DF90CF90BF90AF90AF
:101780009F908F907F906F905F904F903F902F90A1
:101790000895AF92BF92CF92DF92EF92FF920F9394
:1017A0001F93CF93DF93662309F46CC0C091C804E4
:1017B000D091C904209709F465C0182FC62E062EB3
:1017C000000CDD08CC15DD0510F48FDE5BC01616AD
:1017D0007CF0062E000C770B77231CF47195619535
:1017E00071095B017E01E61AF70AC12CD12C27C0D2
:1017F0002197E62E660FFF08CE15DF057CF0BE01AF
:101800006C197D09812FDFDB9B01AC0100E0BE017B
:10181000812F4BDD2197CE15DF058CF71E141F0499
:101820007CF5C0E0D0E000E020E030E0A901BE019E
:10183000812F3BDD2196CE15DF05A9F721C0B5012B
:101840006C0D7D1D812FBFDB9B01AC0100E0B6015B
:10185000812F2BDD8FEFC81AD80AEC14FD0478F71E
:10186000EC16FD0668F400E020E030E0A901B701C5
:10187000812F1BDD8FEFE81AF80AEC16FD0698F3AE
:10188000812F0DDCDF91CF911F910F91FF90EF9091
:10189000DF90CF90BF90AF9008952F923F925F92CC
:1018A0006F927F928F929F92AF92BF92CF92DF9270
:1018B000EF92FF920F931F93CF93DF9300D0CDB79A
:1018C000DEB7582E6DB67EB6662309F4F3C0E090FD
:1018D000C804F090C904E114F10409F4EBC0862FA8
:1018E000660F990BB7010E940D2B18160CF05EC005
:1018F0002DB63EB6C82E880FDD084601C601880FFA
:10190000991F880F991F2DB73EB7281B390B0FB6AB
:10191000F8943EBF0FBE2DBF8DB79EB701969A8338
:1019200089831C141D040CF0B7C087010C191D0914
:101930005C01B801852D47DBF501619371938193BB
:1019400091935F010F5F1F4FE016F10691F79CC066
:10195000B70168197909852D36DB9B01AC0100E0E0
:10196000B701852DA2DCF1E0EF1AF108EC14FD04BB
:101970007CF71C141D04A4F4A980BA80E12CF12C7E
:10198000F50121913191419151915F0100E0B70141
:10199000852D8BDCFFEFEF1AFF0AEC14FD0484F3B6
:1019A0000FB6F8943EBE0FBE2DBE6BC02DB63EB630
:1019B000082E000C990B99231CF49195819591099F
:1019C0008C014C01880F991F880F991F2DB73EB7C6
:1019D000281B390B0FB6F8943EBF0FBE2DBF8DB735
:1019E0009EB701969A838983101611060CF05CC08D
:1019F0005C01C12CD12CB601852DE5DAF50161938E
:101A00007193819391935F01FFEFCF1ADF0A0C1559
:101A10001D0589F749C0B4016C0D7D1D852DD3DAF4
:101A20009B01AC0100E0B601852D3FDC2FEFC21A0F
:101A3000D20AAC14BD0478F76501AE14BF04E0F41B
:101A40008E189F08A80CB91CAA0CBB1CAA0CBB1CA6
:101A500089819A81A80EB91EF50121913191419198
:101A600051915F0100E0B601852D1FDCFFEFCF1A19
:101A7000DF0ACE14DF0480F30FB6F8943EBE0FBE2B
:101A80002DBE852D0CDB16C021E0E21AF108EC1406
:101A9000FD040CF05DCF70CF31E0E31AF108EC14D7
:101AA000FD040CF47DCF54CF5701A818B908C12C00
:101AB000D12CB1CF0FB6F8947EBE0FBE6DBE0F9085
:101AC0000F90DF91CF911F910F91FF90EF90DF90DA
:101AD000CF90BF90AF909F908F907F906F905F90CE
:101AE0003F902F9008952F923F924F925F926F9266
:101AF0007F928F929F92AF92BF92CF92DF92EF929E
:101B0000FF920F931F93CF93DF9300D01F92CDB717
:101B1000DEB789834617570728F4962F872FBA0117
:101B2000492F582F8091C8049091C904009709F457
:101B30009AC07B836A838617970710F49B838A83F6
:101B40008417950708F4AC011016110674F089810A
:101B5000CCDC00E020E03FEF4FEF50E06A817B817A
:101B60008981A3DB89819BDA7EC07A016A817B81CE
:101B7000E61AF70A57017FEFA71AB70AA90133231C
:101B800024F444275527421B530B4A9DC0014B9D0B
:101B9000900D5A9D900D1124B8010E940D2B4B0100
:101BA000672B21F0A114B104F9F45BC082E0A81600
:101BB000B10408F456C06A817B816F5F7F4F7B83DD
:101BC0006A83E60EF71E00E020E030E0A9016A819A
:101BD0007B8189816ADB8A819B8101969B838A83D1
:101BE000E816F90681F73DC0C12CD12C612C712C6F
:101BF000212C312C21012A9468147904D8F4C601CF
:101C0000B7010E940D2B9B013327C901A0E0B0E072
:101C10009C0111270027D201C101861B970BA10946
:101C2000B109A9019801282B00E06A817B81898193
:101C30003CDB08C000E020E030E0A9016A817B8144
:101C4000898133DB7FEF671A770A8FEFC80ED11CCB
:101C50006A817B816F5F7F4F7B836A836A147B0419
:101C600058F289811CDA0F900F900F90DF91CF917D
:101C70001F910F91FF90EF90DF90CF90BF90AF90AA
:101C80009F908F907F906F905F904F903F902F909C
:101C9000089504C0615071098109910961157105A8
:101CA00081059105B9F708959F92AF92BF92CF92A7
:101CB000DF92EF92FF920F931F93CF93DF93EAECA3
:101CC000F4E010821182128213821482FC01EB5222
:101CD000FB4F9080FC01E552FB4FC08161E070E05A
:101CE000892D0E94572360E0892D0E945024CC2327
:101CF000A1F1A12C0F2EF4E2BF2EF02D0F2EF4EF48
:101D0000CF2EF02DD12CE12CF12C00E010E02C2F67
:101D100030E040E050E060E070E080E090E00E9461
:101D2000972B0F2EF6E0AF2EF02DB12CC12C0E9478
:101D3000EA2B29513C4F4F4F5F4F6F4F7F4F8F4FD3
:101D40009F4F0E94C32920E030E04AE754E40E94FC
:101D5000ED280E945A299DDF05C063E070E080E015
:101D600090E097DF60E070E0892D0E94572388E2C1
:101D700090E00E94191AC0E9D1E003C0219709F44C
:101D800048C0892D0E947F248823C1F303C0219776
:101D900019F442C0C0E9D1E0892D0E947F2481114D
:101DA000F6CF08E2B12C10E803C0219719F437C030
:101DB000C0E9D1E0892D0E947F248823B1F30E94DD
:101DC000B1196B017C01C0E9D1E002C0219751F14A
:101DD000892D0E947F248111F9CF0E94B119DC0165
:101DE000CB018C199D09AE09BF098997A105B105E1
:101DF00038F0EB2DF0E0E653FB4F8081812B8083A0
:101E0000169511F4B39410E8015091F680E090E03B
:101E10000BC08EEF9FEF08C08EEF9FEF05C08EEFD7
:101E20009FEF02C08EEF9FEFDF91CF911F910F9137
:101E3000FF90EF90DF90CF90BF90AF909F9008956C
:101E40001F920F920FB60F9211242F933F934F932F
:101E50005F936F937F938F939F93AF93BF93EF9312
:101E6000FF938091890288232CF4109285001092B0
:101E700084002DC020918902022E000C330B80912A
:101E8000140190E02817390714F580918902082E73
:101E9000000C990BFC01EE0FFF1F8E0F9F1FFC0122
:101EA000E657FD4F808186FF12C080918902082E7F
:101EB000000C990BFC01EE0FFF1F8E0F9F1FFC0102
:101EC000E657FD4F808160E08F730E94502480911F
:101ED00089028F5F8093890220918902022E000C73
:101EE000330B8091140190E0281739070CF040C0A3
:101EF000809189028C30E4F5209184003091850036
:101F000080918902082E000C990BFC01EE0FFF1F37
:101F10008E0F9F1FFC01E657FD4F81819281820F3A
:101F2000931F909389008093880080918902082EE6
:101F3000000C990BFC01EE0FFF1F8E0F9F1FFC0181
:101F4000E657FD4F808186FF2EC080918902082EC2
:101F5000000C990BFC01EE0FFF1F8E0F9F1FFC0161
:101F6000E657FD4F808161E08F730E9450241BC0B3
:101F70008091840090918500049680349C4938F4C7
:101F800080E49CE9909389008093880009C0809147
:101F90008400909185000496909389008093880036
:101FA0008FEF80938902FF91EF91BF91AF919F9145
:101FB0008F917F916F915F914F913F912F910F90F2
:101FC0000FBE0F901F901895EF92FF920F931F93E3
:101FD000CF93C82F7B018A0161E070E00E945723F4
:101FE000EAE8F2E0CF738081807CC82BC08320E2D6
:101FF00032E02E193F09C90199230CF403969595F7
:102000008795959587958093880220E639E0201B77
:10201000310BC90199230CF40396959587959595F5
:1020200087958093870280918A0286FD1FC081E098
:1020300090E0FC01EE0FFF1FE80FF91FE657FD4F80
:10204000208126FD13C001968C30910591F71092E6
:10205000800082E0809381001092850010928400BD
:10206000B19AEFE6F0E0808182608083EAE8F2E0F6
:1020700080818064808380E0CF911F910F91FF90D9
:10208000EF900895AC018091880228E830E0281B89
:10209000310987FD3395C901880F991F880F991F52
:1020A000481759078CF08091870228E532E0281BF9
:1020B000310987FD3395220F331F220F331FCA01C9
:1020C000241735070CF4C9012FB7F8940297092E8D
:1020D000000CAA0BBB0B880F991FAA1FBB1F8E7F7A
:1020E000BF7190938C0280938B022FBF0895CF9283
:1020F000DF92EF92FF92803222E092070CF040C014
:10210000BC01992314F460E070E080918802A8E893
:10211000B0E06D01C81AD10887FDD394D601AA0F8B
:10212000BB1FAA0FBB1F6D01BB0FEE08FF088091FC
:10213000870228E532E0281B310987FD3395220FFD
:10214000331F220F331FC901330FAA0BBB0B9C0196
:10215000AD012C193D094E095F09DB01653B710595
:1021600014F0A4EBB0E00E94912B24EB30E040E0AF
:1021700050E00E94562BC20ED31EE41EF51EC6016F
:1021800081DFFF90EF90DF90CF9008958CE08093F7
:10219000140180E090E028EB3BE0FC01EE0FFF1F14
:1021A000E80FF91FE657FD4F3283218301968C30EB
:1021B000910599F708958F929F92AF92BF92CF9217
:1021C000DF92EF92FF92CF93C82F69017A01232B00
:1021D000242B252BE1F0AB0162E30E94D4240E9462
:1021E00094274B015C010E949427DC01CB018819E4
:1021F0009909AA09BB098C159D05AE05BF0598F381
:1022000040E050E062E38C2F0E94D42406C0F89492
:10221000AB0162E30E94D4247894CF91FF90EF90B9
:10222000DF90CF90BF90AF909F908F900895CF9305
:10223000DF93EC01E0912305F0912405309701F143
:102240009091B3028091B2029817D0F0161617063B
:102250008CF420E030E090E0DE01A90FB11D4C913C
:10226000D901AD51BB4F4C939F5F292F30E026170A
:10227000370794F3CB011092B3026093B202099531
:10228000DF91CF910895E091E104F091E20430975D
:1022900029F01092B0021092AF02099508951092A1
:1022A000210381E080931F0310921E0361E082E00E
:1022B0000E94502461E083E00E945024E9EBF0E0AA
:1022C00080818E7F808380818D7F808388E480936E
:1022D000B80085E48093BC000895413208F04CC0FA
:1022E000909121039111FCCF31E030932103209391
:1022F0001F032FEF2093B4021092F902240F2093B2
:10230000F8023093200320912003880F822B8093C2
:10231000200380911E03813081F410921E03ABEBE9
:10232000B0E0ECEBF0E0809120038C93808183FDA2
:10233000FACF85EC8093BC0003C085EE8093BC008F
:10234000809121038130E1F38091F902841710F428
:102350004091F902442389F0EAEFF2E0A62FB72F6B
:102360002FEF240F30E025503D4F81918D93E217E0
:10237000F307D9F7942F01C090E0892F08950F93A8
:10238000413208F057C0309121033111FCCF92E067
:102390009093210300931F039FEF9093B402109238
:1023A000F9024093F802442371F0FB01AAEFB2E076
:1023B000415050E04F5F5F4F640F751F91919D93A7
:1023C000E617F707D9F71092200390912003880FA2
:1023D000892B8093200380911E03813081F4109219
:1023E0001E03ABEBB0E0ECEBF0E0809120038C93AC
:1023F000808183FDFACF85EC8093BC0003C085EE1D
:102400008093BC00222341F080912103823021F48B
:10241000809121038230E1F38091B4028F3F79F003
:102420008091B402803241F08091B402803331F067
:1024300034E005C031E003C032E001C033E0832F57
:102440000F9108954091D602262F30E0240F311DC0
:1024500021323105ECF4209121032430D9F4662394
:1024600081F0A82FB92F80E090E03091D6022D9115
:10247000FC01E852FD4FE30FF11D20830196861702
:10248000A0F38091D602680F6093D60280E0089591
:1024900081E0089582E0089585ED8093BC00ECEB27
:1024A000F0E0808184FDFDCF10922103089585EC3A
:1024B0008093BC001092210308951F920F920FB6D3
:1024C0000F9211242F933F934F935F936F937F93BA
:1024D0008F939F93AF93BF93EF93FF938091B90036
:1024E000E82FE87F8E2F90E0893C910508F0EDC041
:1024F000FC01EA5AFF4F0C94722B809120038093C9
:10250000BB0085EC8093BC00E0C09091F902809103
:10251000F802981780F4E091F90281E08E0F809321
:10252000F902F0E0E650FD4F80818093BB0085EC1E
:102530008093BC00CAC080911F03882311F0ACDFD8
:10254000C4C081E080931E0384EA8093BC00109293
:102550002103BBC080E28093B4029EDFB6C080E35B
:102560008093B40299DFB1C088E38093B4029FDF07
:10257000ACC0E091F90281E08E0F8093F902809166
:10258000BB00F0E0E650FD4F80839091F90280910E
:10259000F802981720F485EC8093BC0096C085E87B
:1025A0008093BC0092C0E091F90281E08E0F80938D
:1025B000F9028091BB00F0E0E650FD4F80838091EE
:1025C0001F03882311F068DF80C081E080931E0321
:1025D00084EA8093BC001092210377C05DDF75C050
:1025E00083E0809321031092B50285EC8093BC00B8
:1025F0006CC08091B502803280F4E091B50281E038
:102600008E0F8093B5028091BB00F0E0EA54FD4F3D
:10261000808385EC8093BC0058C085E88093BC0023
:1026200054C045DF8091B502803230F4E091B502AC
:10263000F0E0EA54FD4F10826091B50270E0E09145
:102640001A03F0911B0386EB92E009951092B502F4
:102650003CC085E88093BC0038C084E080932103AF
:102660001092D7021092D602E0911C03F0911D0344
:1026700009958091D602811105C081E08093D60230
:102680001092D802E091D70281E08E0F8093D7029A
:10269000F0E0E852FD4F80818093BB009091D7021B
:1026A0008091D602981720F485EC8093BC000DC071
:1026B00085E88093BC0009C085EC8093BC00109233
:1026C000210303C01092B402E7DEFF91EF91BF91A6
:1026D000AF919F918F917F916F915F914F913F91BA
:1026E0002F910F900FBE0F901F9018951092B3026C
:1026F0001092B2021092B0021092AF02D0DD83E4C9
:1027000091E190931D0380931C0387E191E19093E5
:102710001B0380931A030895462F613208F040E2AC
:1027200021E063EE74E0D9DD1092B3028093B2022F
:10273000089591E09093AE028093B1021092B0029E
:102740001092AF0208950F93CF93C82F0C2F21E062
:102750004091AF0263E075E08091B10210DE90918C
:10276000AF02992311F08111F1CF1092B0021092B3
:10277000AF021092AE02CF910F910895CF93DF93E5
:102780001F92CDB7DEB789838091AE028823A1F076
:102790008091AF028032B8F48091B002E82FF0E06F
:1027A000ED5FFA4F998190838F5F8093B0028093A1
:1027B000AF0281E090E009C061E0CE01019642DE07
:1027C00081E090E002C080E090E00F90DF91CF9137
:1027D00008958091B20290E02091B302821B91098A
:1027E00008959091B3028091B202981750F4E92FA6
:1027F000F0E0ED51FB4F208130E09F5F9093B302FA
:1028000002C02FEF3FEFC90108958F929F92AF92C0
:10281000BF92CF92DF92EF92FF92CF93DF9390E03F
:10282000FC01ED5BFA4FD081FC01EB5DFA4FC081FA
:10283000880F991F880F991FFC01E55DFA4FC08032
:10284000D180E280F3802D2F277081E090E0AC01F1
:1028500002C0440F551F2A95E2F79A01ED2FF0E0D0
:10286000F695E795F695E795F695E795AF01440F50
:10287000551FE40FF51FB096322F30954281342357
:1028800032833181232B2183EC2FF0E0F695E795FD
:10289000F695E795F695E7959F01220F331FE20F16
:1028A000F31FB0962C2F277002C0880F991F2A950E
:1028B000E2F7809591819823918392818923828385
:1028C00060E08D2F0E94502482E090E0B2D561E05C
:1028D0008D2F0E9450248AE090E0ABD560E08D2FD0
:1028E0000E9450243ED54B015C018C2F0E947F2416
:1028F00081110CC036D5DC01CB0188199909AA09D0
:10290000BB09C816D906EA06FB0678F72AD54B019B
:102910005C018C2F0E947F24882361F022D5DC018A
:10292000CB0188199909AA09BB09C816D906EA0674
:10293000FB0678F716D5681979098A099B0928E3F7
:1029400030E040E050E00E94342BC901DF91CF918C
:10295000FF90EF90DF90CF90BF90AF909F908F90BF
:10296000089540912F035091300320912D03309111
:102970002E0342175307BCF4E8EEF0E09081957007
:10298000E9F39091E80092FD19C08093F1008091E5
:102990002F039091300301968F739927892B19F497
:1029A0008EEF8093E80080912F0390913003019681
:1029B0009093300380932F0381E0089580E0089581
:1029C000CF92DF92EF92FF920F931F93CF93DF93FB
:1029D0006C01C62FD42F862F880F8E5FC2DF83E055
:1029E000C0DFD078CC23E1F08601C150EC2EF12C71
:1029F0008FEFE81AF80AEC0CFD1CDD2319F0F80142
:102A0000849102C0F8018081ACDFC82F80E0A9DF8B
:102A10008C2339F00F5F1F4F0E151F0571F701C092
:102A200081E0DF91CF911F910F91FF90EF90DF90A8
:102A3000CF9008959093CD008093CC0088E180934F
:102A4000C9008EE08093CA0008959FB790934B050C
:102A5000F89487708093E900089580914B058FBFAB
:102A60000895CF93F2DF8091E800C82FC07285FDF2
:102A700002C0F3DF05C0F1DF8091F200C0E4C81BA3
:102A80008C2FCF9108952F923F924F925F926F9229
:102A90007F928F929F92AF92BF92CF92DF92EF92EE
:102AA000FF920F931F93CF93DF9300D01F92CDB768
:102AB000DEB78B834B01742E252E80913303882340
:102AC00009F49CC08091310380FF05C0E0EEF0E086
:102AD000808182608083072D122DC12C0F2EFAEF8A
:102AE000DF2EF02D0F2EF8EEAF2EB12CF02D2B8116
:102AF0002072622E8B81807489830F2EFAE35F2E01
:102B0000F02D33243394412C0F2EF1EFEF2EF12CC6
:102B1000F02D6BC08B81A5DF8A83811108C0DA9408
:102B2000DD2009F46EC081E090E041D45EC0AA814E
:102B30008A2F90E0081719070CF40A838B8185DF30
:102B4000F501808185FF51C0FA810F1B11096620B4
:102B500049F08F2F8150FF2371F1D7011C928150D2
:102B6000E0F729C0BB81BB2334F02A812150EA81E0
:102B7000E11115C020C02A812150FA81FF23D9F02C
:102B8000F401822F9491D7019C93815031968F3F0D
:102B9000C9F7822F90E00196880E991E0CC0F401AF
:102BA000822F9191D7019C938150D8F7822F90E08A
:102BB0000196880E991ECC2021F0F5015082C42C7C
:102BC00013C0D5018C9185FD07C05C92C32C011503
:102BD000110551F0C42C08C00115110529F4B98163
:102BE000BB2311F0F501508238DF0115110509F002
:102BF00091CFC1108FCF872D922D05C08FEF9FEF02
:102C000002C08FEF9FEF0F900F900F90DF91CF9149
:102C10001F910F91FF90EF90DF90CF90BF90AF90FA
:102C20009F908F907F906F905F904F903F902F90EC
:102C300008951092E9001092300310922F039093A0
:102C40002E0380932D030895CF92DF92FF920F936E
:102C50001F93CF93DF936A018078F82E8B01040FC6
:102C6000151FEB010AC0FF2019F0FE01849101C07D
:102C7000888177DE2196882331F0C017D10799F734
:102C80008C2D9D2D02C08FEF9FEFDF91CF911F9173
:102C90000F91FF90DF90CF900895EF92FF920F93E6
:102CA0001F93CF93DF937C016115710511F1AB0187
:102CB000A8EEB0E0C1EFD0E08BEF8A0141345105BE
:102CC00014F000E410E09C9192FFFDCFFB01E41BA7
:102CD000F50BEE0DFF1D9FEF900F002331F02881C3
:102CE0002083915031969F3FD1F78C93401B510B1D
:102CF00021F7CB01DF91CF911F910F91FF90EF90C2
:102D000008951F920F920FB60F921124EF92FF9227
:102D10000F931F932F933F934F935F936F937F93E3
:102D20008F939F93AF93BF93EF93FF93CF93DF93D3
:102D3000CDB7DEB76297DEBFCDBF1092E9008091BC
:102D4000E80083FF20C1FE013196A1EFB0E09E01B3
:102D5000275F3F4F8C9180833196E217F307D1F7BD
:102D600082EF8093E8009981992334F4E8EEF0E053
:102D7000808180FFFDCF03C08EEF8093E800892F14
:102D8000807609F0B6C08A8181110EC0903839F47E
:102D900080913203E1EFF0E080831082C6C0E1EF62
:102DA000F0E010821082C1C01B810C81212F30E025
:102DB000302B813061F49111B8C02130310509F018
:102DC000B4C0809132038D7F80933203AEC08330D4
:102DD00061F49111AAC02130310509F0A6C080919B
:102DE0003203826080933203A0C0853049F4E8EE5C
:102DF000F0E0808180FFFDCF10681093E30095C064
:102E0000863009F04BC0EF80F884023059F580E03D
:102E100090E00FDF1986CE0109960E94780129857E
:102E200089E0898782E08A8780912F03909130031F
:102E300009969C878B872D8781E08E871F8680EA85
:102E4000888B8AEF898BC701F4DE49E050E0BE0130
:102E5000675F7F4F80E0F8DE1A8ACE0142960E94BB
:102E6000780163C0C701E5DE013009F466C00330B4
:102E700009F05FC0112309F463C0123031F440E857
:102E800060E18EE992E09CDD4EC0113009F051C046
:102E900040E86BE082E992E093DD45C0873009F4B9
:102EA00048C0883021F481E08093F1003EC0893031
:102EB000E1F5937009F03DC080911601811148C081
:102EC00010C0D7018C93DB013C939191DA019C9364
:102ED000ADEEB0E02C938F5F873019F090819111A7
:102EE000F0CFEAEEF0E08EE7808310821093330398
:102EF0001CC08F8198859DDE88E0FE013196DE0141
:102F0000199601900D928A95E1F76D817E8161118C
:102F100010C06D877E8729853A854B855C858F85B6
:102F200098890E948E01882321F08EEF8093E8001B
:102F30002AC081E28093EB0026C060E872E002C004
:102F40006FEA72E0FB01449150E080E87DDEEDCF56
:102F500081E08093E9008093EB00809116018093DB
:102F6000EC0086E38093ED00E7E1F1E082E00F2ED4
:102F7000F9EEEF2EF12CF02D6BEE70E031E04CEE1F
:102F800050E026E3ABCF62960FB6F894DEBF0FBEDB
:102F9000CDBFDF91CF91FF91EF91BF91AF919F9105
:102FA0008F917F916F915F914F913F912F911F91E1
:102FB0000F91FF90EF900F900FBE0F901F901895FC
:102FC0008093E9008091F200882319F08AE38093CE
:102FD000E80008951F920F920FB60F9211242F93BD
:102FE0003F934F935F936F937F938F939F93AF9391
:102FF000BF93CF93EF93FF93E1EEF0E0C081808128
:10300000837F8083C3FF0FC01092E90081E080932B
:10301000EB001092EC0082E38093ED0010923303FA
:1030200088E08093F000C2FF02C083E0C9DFC4FFE4
:1030300012C0E2EEF0E080818E7E81608083E1EE5E
:10304000F0E080818F7E8083809131038E7E80616D
:103050008093310313C0C0FF11C0E2EEF0E0808125
:103060008E7E80618083E1EEF0E080818E7E8083C1
:10307000809131038E7E816080933103FF91EF91C7
:10308000CF91BF91AF919F918F917F916F915F9100
:103090004F913F912F910F900FBE0F901F90189559
:1030A00081E08093D70080EA8093D80082E189BDD7
:1030B00009B400FEFDCF80E98093D8001092E000B3
:1030C000109233038CE08093E2007894089580910D
:1030D000330308952FB7F89480913303811104C00E
:1030E0002FBF8FEF9FEF089582E08093E9008091DA
:1030F000E80085FD12C082FD04C00BC082FD04C043
:1031000008C0E8EEF0E09BE69083808185FFF6CF73
:1031100004C02FBF8FEF9FEF08958091F100909131
:10312000E80095FD03C09BE69093E8002FBF90E078
:10313000089508958091C000881F8827881F0895EA
:103140000C945A0208958091C6000895AF92BF92E0
:10315000CF92DF92EF92FF920F931F93CF93DF9363
:10316000E82EF12CEE0CFF1CEE0CFF1CEE0CFF1CED
:10317000182F110F110F110FC0E0D0E000E022E076
:10318000E21AF108C62ED12CAA24A394B12CC701AF
:103190008C0F9D1F4297B0F4C6010C2E02C095956E
:1031A00087950A94E2F780FF0DC0812F0E947F244B
:1031B000882341F0C5010C2E02C0880F991F0A9484
:1031C000E2F7082B21961F5FC830D10501F7802F49
:1031D000DF91CF911F910F91FF90EF90DF90CF90F3
:1031E000BF90AF9008955F926F927F928F929F925F
:1031F000AF92BF92CF92DF92EF92FF920F931F9305
:10320000CF93DF938A01FB015080452B09F04FC01B
:103210000FEF1FEF4CC06701F70181917F0190E034
:103220000C2E02C0880F991F0A94E2F785298F7728
:1032300087DF2FEF821A920AF601808190E09501D4
:103240002C1B3D0B02C0959587952A95E2F7582EC9
:103250002196C730D105A0F080169106C0F5852DC6
:103260008F776EDFFFEF8F1A9F0A551C5524551C70
:103270002797C730D10520F08016910680F327C02C
:10328000E614F70421F08016910628F223C0209757
:1032900009F180169106F0F481E090E002C0880FF9
:1032A000991FCA95E2F7815085214ADF13C0009724
:1032B00089F07B013B01680E791EC0E0D0E0812CD3
:1032C000912C0F2EF7E0AF2EB12CF02DA4CFE614E9
:1032D000F704E9F2DF91CF911F910F91FF90EF90EA
:1032E000DF90CF90BF90AF909F908F907F906F9026
:1032F0005F900895EF92FF920F931F93CF93DF9308
:10330000C82F162F7A0180EF1BDF8C2F19DF1123B6
:1033100091F0E7011150012F10E00F5F1F4F0E0DCC
:103320001F1D40E050E0BE0181E090E05CDF21968F
:10333000C017D107B1F787EF03DFDF91CF911F915E
:103340000F91FF90EF900895FC0101900020E9F7A4
:103350003197BF01681B790BAC0181E7CBCF089592
:1033600008953FB7F8948091830490918404A091CC
:103370008504B091860426B5A89B05C02F3F19F09F
:103380000196A11DB11D3FBFBA2FA92F982F8827E5
:10339000820F911DA11DB11DBC01CD01660F771FCC
:1033A000881F991F660F771F881F991F08958F9296
:1033B0009F92AF92BF92CF92DF92EF92FF926B01FA
:1033C0007C01CFDF4B015C01C114D104E104F104A5
:1033D00029F526C0C5DF10C021E0C21AD108E108D6
:1033E000F10888EE880E83E0981EA11CB11CC11460
:1033F000D104E104F104A1F0B4DFDC01CB018819B0
:103400009909AA09BB09883E9340A105B10520F797
:10341000C114D104E104F104E9F602C0A1DFECCF4C
:10342000FF90EF90DF90CF90BF90AF909F908F90E4
:1034300008958230910538F0880F991F880F991FE1
:1034400005970197F1F70895109207061092DE058F
:103450001092DD05109254051092530510929605B6
:103460001092520580E48093080608950F931F93ED
:10347000CF93DF9300D000D0CDB7DEB780914C055D
:103480008823E9F00FE415E0F801608180E05EDE5A
:10349000F8011081182380919905181781F0812F68
:1034A00090E09C838B8380E94BDE42E050E0BE01DC
:1034B0006D5F7F4F82E090E096DE109399058091DA
:1034C0004D058823E9F00FE415E0F801618181E002
:1034D0003DDEF8011181182380919A05181781F0BB
:1034E000812F90E09A83898381E92ADE42E050E0CF
:1034F000BE016F5F7F4F82E090E075DE10939A050A
:103500000F900F900F900F90DF91CF911F910F911F
:103510000895CF93DF9300D0CDB7DEB77A83698368
:10352000803170F46115704458F4806E09DE42E019
:1035300050E0BE016F5F7F4F82E090E054DE06C036
:103540008FEFFEDD8FEFFCDD8FEFFADD0F900F9038
:10355000DF91CF9108950F931F93CF93DF9300D006
:1035600000D000D0CDB7DEB702EF10E0143148F53F
:10357000063038F5812F0E945123823011F5202F1B
:1035800030E08091370390E0002E02C0959587953A
:103590000A94E2F780FF15C086E0E1E2F1E0DE0187
:1035A000119601900D928A95E1F7E1E0F0E0EC0FC1
:1035B000FD1FE20FF31F80810E94B024BC01802F09
:1035C000A8DF1F5F0F5F143189F626960FB6F894B7
:1035D000DEBF0FBECDBFDF91CF911F910F91089538
:1035E000CF92DF92FF920F931F93CF93DF93182F09
:1035F000EB01F42E022F6F3F7F4F71F0812F99D88E
:103600008C2FBCD8802F9FD88091350390913603A2
:10361000009721F00EDF02C0C0E0D0E06F2D812FB7
:103620007BD8CF2CD12CD5D8C816D9060CF0D1D840
:10363000E5E5F5E01083C183CCD8892B89F01C1413
:103640001D0474F4C7E5D5E00F2D10E0095A1A4F98
:10365000C8D88993BED8892B19F0C017D107C1F7F4
:1036600062E06F0D45E555E087E744DEDF91CF91DD
:103670001F910F91FF90DF90CF900895CF9380E03E
:1036800009C08151823028F466E070E08C2F0E94DE
:1036900057238C2FC1E0C80FC43199F781E0809384
:1036A000340324D8CF910895EF92FF921F93CF93C4
:1036B000DF9380918302909184029C012F5F3F4FA2
:1036C00030938402209383022091850230918602F8
:1036D000281739070CF057C080918102909182021F
:1036E000892B09F450C08091800290E00E94540E12
:1036F000BC0190918002492F50E0FA01EB52FB4F40
:10370000D081FA01E153FB4FC081109284021092E4
:10371000830290937F029F5F9093800220918102A9
:1037200030918202215031094217530714F0109250
:103730008002672B41F5EAECF4E090818181980FDB
:103740008281980F8381980F81E02481921301C0B8
:1037500080E0182F80EFF4DC85E6F2DC8D2FF0DCC2
:103760008C2FEEDCCAECD4E00F2EFEECEF2EF4E052
:10377000FF2EF02D8991E4DCCE15DF05D9F7812FDE
:10378000DFDC87EFDDDCDF91CF911F91FF90EF90C1
:103790000895CF93DF9380912703909128039C0194
:1037A0002F5F3F4F30932803209327032091250359
:1037B00030912603281739070CF03EC010922803D9
:1037C0001092270380912B0390912C03892BA1F158
:1037D000809123031AD8EC01209123033091240314
:1037E00020932203C901019690932403809323031D
:1037F00080912B0390912C0301972817390724F00F
:10380000109224031092230380EF9ADC83E698DC65
:10381000E0912203F0E0ED5BFA4F808191DC8C2F88
:103820008F778EDCCE01880F892F881F990B919599
:103830008F7786DC87EF84DCDF91CF9108951F922C
:103840000F920FB60F9211240F931F932F933F9354
:103850004F935F936F937F938F939F93AF93BF9398
:10386000EF93FF93E09A0E9494270091B304109184
:10387000B4042091B5043091B604DC01CB01801B67
:10388000910BA20BB30B883C9105A105B10558F42F
:103890000E9494276093B3047093B4048093B5049A
:1038A0009093B6040FC083E00E948F030E947702BA
:1038B0000E9494276093B3047093B4048093B5047A
:1038C0009093B604FF91EF91BF91AF919F918F912B
:1038D0007F916F915F914F913F912F911F910F9128
:1038E0000F900FBE0F901F9018951F920F920FB65A
:1038F0000F9211240F931F932F933F934F935F9336
:103900006F937F938F939F93AF93BF93EF93FF93A7
:10391000E19A0E9494270091B3041091B40420917D
:10392000B5043091B604DC01CB01801B910BA20BD6
:10393000B30B883C9105A105B10558F40E9494276A
:103940006093B3047093B4048093B5049093B60469
:103950000FC082E00E948F030E9477020E9494278A
:103960006093B3047093B4048093B5049093B60449
:10397000FF91EF91BF91AF919F918F917F916F9147
:103980005F914F913F912F911F910F910F900FBE1B
:103990000F901F901895CF92DF92EF92FF920F93A6
:1039A0001F93CF93DF93CDB7DEB7CF57D1090FB6B3
:1039B000F894DEBF0FBECDBF80919D05813709F41D
:1039C000B4C4893779F580915305909154050397D4
:1039D00008F0ABC4C0901D01D0901E01F60101900B
:1039E0000020E9F731977F01EC18FD0880EFA8DB94
:1039F00089E7A6DB82E0A4DB86E0A2DBE114F10428
:103A000071F08601EC0CFD1C40E050E0B80181E053
:103A100090E0E9DB0F5F1F4F0E151F05A9F787EF39
:103A20008FDB83C4909153051FEF190F843609F47F
:103A300007C270F48135E9F020F48D3009F451C2E9
:103A400074C48F3509F492C1823609F4B7C16DC4CC
:103A50008637C1F038F4893609F42BC1803709F470
:103A600061C163C4883709F40CC18A3709F435C1D0
:103A70005CC480EF65DB82E563DB81E061DB87EFBF
:103A80005FDB53C400919F0505FD4FC40E944F1199
:103A9000EDE9F5E08181928196FB992790F921E08B
:103AA00029270871083051F118F4002341F03DC472
:103AB000003109F442C0083109F483C036C40E94C1
:103AC00099131330A0F002E0202F30E0F901E15605
:103AD000FA4F8081879588278795F901E256FA4F3A
:103AE0009081890F0E94BE130E5F011768F381E079
:103AF0000E94A31386E490E09CDC17C4163089F47E
:103B0000EDE9F5E09481638170E030E8939F600D0A
:103B1000711D112446814795442747959581490F8A
:103B20000AC0EDE9F5E04481479544274795938124
:103B3000490F6FEF7FEF54DDF8C340911C01642FF4
:103B4000042E000C770B6F5F7F4F6830710524F0F7
:103B500080E691E0F9DBE9C3163091F4EDE9F5E098
:103B60009481638170E0A0E89A9F600D711D11241B
:103B70009681392F3795332737959581930F0BC051
:103B8000EDE9F5E09481392F379533273795938107
:103B9000930F6FEF7FEF4F5F40931C01042E000CDB
:103BA000550BFA01EE0FFF1FEE0FFF1F4E0F5F1FA9
:103BB000FA01E152FA4F80837283618393832483F5
:103BC000B4C310911C0111168CF4612F012E000C4E
:103BD000770B6F5F7F4F161617060CF04EC0909153
:103BE000DF05891709F49DC390E012C08FEF809321
:103BF0001C019BC3F901EE0FFF1FEE0FFF1F2E0FDD
:103C00003F1FF901E152FA4F2081821709F48AC35C
:103C10009F5F292F30E02617370764F390E082C3B7
:103C2000983028F5A9014F5F5F4FDA01AA0FBB1F3B
:103C3000AA0FBB1FA40FB51FA152BA4F8C91F90157
:103C4000EE0FFF1FEE0FFF1F2E0F3F1FF901E15276
:103C5000FA4F808311962D913C91129732832183E4
:103C600013968C911397838314968C9184839F5F12
:103C7000292F30E0261737079CF2115010931C01B2
:103C800054C3123080F0EDE9F5E02281818190E0AB
:103C9000B0E82B9F800D911D1124009721F0909387
:103CA0003603809335038091340381113EC3E6DCF3
:103CB0003CC380EF45DA8AE643DA13EF8FE70FE77C
:103CC00006C0163010F4812F01C0802F1F5F38DA34
:103CD0001630B9F787EF34DA28C3EDE9F5E08281D1
:103CE000218130E0E0E88E9F200D311D11243093BA
:103CF000200120931F012115310509F416C388E224
:103D000090E0B9010E940D2B709326036093250368
:103D100080ED97E0B9010E940D2B709386026093AD
:103D2000850203C3153008F400C310919E058EEF81
:103D3000810F823108F0F9C2EDE9F5E08581448117
:103D400050E030E8839F400D511D11248381628132
:103D500070E090E8899F600D711D1124812F0E94F1
:103D6000E40F64E070E0812FA2D4DFC2EDE9F5E05A
:103D700091818281911117C09681258130E0A0E860
:103D80009A9F200D311D1124032E000C440B550B5E
:103D90009481638170E0B0E89B9F600D711D1124D8
:103DA0000E94DB10C2C2913009F0BFC220E030E0B7
:103DB000A90160E070E00E94DB10B7C220912B03E4
:103DC00030912C03263031050CF0AFC2EDE9F5E05F
:103DD000818180932A03928190932903D901AA0FAC
:103DE000BB1FAA0FBB1FA55DBA4F6481438150E082
:103DF000E0E86E9F400D511D1124052E000C660B4E
:103E0000770B4D935D936D937C931397F901ED5B65
:103E1000FA4F8083F901EB5DFA4F90836CE070E01C
:103E200046D46CE070E08091290341D480912B034B
:103E300090912C03019690932C0380932B0375C2D1
:103E40002091810230918202263031050CF045C06C
:103E5000EDE9F5E081819281492F50E0463151052D
:103E600031F441E0F901E552FB4F40830DC04B3086
:103E7000510531F44AE0F901E552FB4F408304C09B
:103E800081E791E061DA51C2F901EB52FB4F808387
:103E9000F901E153FB4F90836FE070E008D480910B
:103EA0008102909182020E94540E892B09F03DC23A
:103EB00060918102709182026F5F7F4F70938202E6
:103EC0006093810280918502909186020E94212B4D
:103ED000709386026093850228C286EA91E034DA04
:103EE00024C280919E05FE0131969FE7DF011D925D
:103EF0009A95E9F78E3091F50E944F11F12C11E05F
:103F0000812F0E94991381E00E94A313811108C0A0
:103F1000E1E0F0E0EC0FFD1FEF0DF11D1083F394D5
:103F20001F5F1F3769F780EF0BD98DE009D98EE04D
:103F300007D98F2D05D9FF2071F08E010F5F1F4F1C
:103F4000F801EF0DF11D7F01D8018D918D01F8D899
:103F5000E016F106C9F787EFF3D8E7C18111B7C0C2
:103F600080919F05813009F04FC0E091A005E0935A
:103F7000BA04F0E0EF51FE4F2081822F90E0969539
:103F800087959695879596958795FC01EE0FFF1F6F
:103F90008E0F9F1FFC01B096277081E090E002C059
:103FA000880F991F2A95E2F7809591819823918334
:103FB0009281892382830E9469028091BA048230AF
:103FC00081F4809139038111B0C181E0809339037C
:103FD000F894E99AE9E6F0E080818860808378943B
:103FE000A4C1833009F0A1C18091380381119DC122
:103FF00081E080933803F894E89AE9E6F0E0808164
:1040000082608083789491C181118FC1EDE9F5E0E0
:10401000448150E060E070E0032E3CE1440F551F06
:10402000661F771F3A95D1F7302D9581892F90E043
:10403000A0E0B0E0072E75E1880F991FAA1FBB1FF3
:104040007A95D1F7702D842B952BA62BB72B468113
:1040500050E060E070E0032E3EE0440F551F661F05
:10406000771F3A95D1F7302D482B592B6A2B7B2B94
:10407000878190E0A0E0B0E0880F991FAA1FBB1FC6
:10408000880F991FAA1FBB1F880F991FAA1FBB1F4C
:10409000880F991FAA1FBB1F880F991FAA1FBB1F3C
:1040A000880F991FAA1FBB1F880F991FAA1FBB1F2C
:1040B000842B952BA62BB72B20852F77BC01CD0108
:1040C000622B20E230E043810E94B2042EC187318E
:1040D00009F02BC180919F05811120C0EDE9F5E029
:1040E000F3800481B0E80B9F8001112485818F77D4
:1040F000082B80EF25D88DE023D887E121D822E551
:104100004FEFB8018F2D0E941206811102C018D8FE
:1041100002C081E015D887EF13D807C1813009F0BC
:1041200047C0EDE9F5E0008510E020E030E00F2E1B
:10413000F5E1000F111F221F331FFA95D1F7F02D63
:10414000818590E0A0E0B0E0072E7EE0880F991F07
:10415000AA1FBB1F7A95D1F7702D082B192B2A2B7C
:104160003B2B828590E0A0E0B0E0689416F8880FC1
:10417000991FAA1FBB1F1694D1F7082B192B2A2BA6
:104180003B2B83858F77082B468170E8479FA001E2
:10419000112487818F77482B648180E8689FB00164
:1041A000112485818F77682B83810E941D0ABDC0F1
:1041B000823039F4EDE9F5E0648183810E94FA08E8
:1041C000B4C0833009F078C0EDE9F5E0C484D12CA7
:1041D000E12CF12C0B2EB5E1CC0CDD1CEE1CFF1CF0
:1041E000BA95D1F7B02D858590E0A0E0B0E0072E1C
:1041F0007EE0880F991FAA1FBB1F7A95D1F7702DFB
:10420000C82AD92AEA2AFB2A868590E0A0E0B0E0F5
:10421000689416F8880F991FAA1FBB1F1694D1F730
:10422000C82AD92AEA2AFB2A87858F77C82A0085D7
:1042300010E020E030E00F2EF5E1000F111F221FEB
:10424000331FFA95D1F7F02D818590E0A0E0B0E022
:10425000072E7EE0880F991FAA1FBB1F7A95D1F702
:10426000702D082B192B2A2B3B2B828590E0A0E088
:10427000B0E0689416F8880F991FAA1FBB1F169408
:10428000D1F7082B192B2A2B3B2B83858F77082BF3
:10429000468190E8499FA001112487818F77482BA0
:1042A0006481A0E86A9FB001112485818F77682B13
:1042B00083810E94A20A39C0843039F4EDE9F5E027
:1042C000648183810E94C90B30C0853039F4EDE9E7
:1042D000F5E0648183810E944D0C27C08630D1F4C3
:1042E000EDE9F5E0018510E0208530E04681B0E899
:1042F0004B9FA001112487818F77482B648180E830
:10430000689FB001112485818F77682B83810E947B
:10431000730D0BC0873049F48091A0050E94750A87
:1043200004C090E0292F30E07BCCC158DF4F0FB69E
:10433000F894DEBF0FBECDBFDF91CF911F910F91DB
:10434000FF90EF90DF90CF9008951F93CF93DF936E
:10435000182FEB018091080690E068177907A0F00C
:10436000E091B104F091B204309799F081E080932C
:104370009C058091B8049091B90409958091080634
:1043800090E0C817D90738F4C356DA4F188380E095
:1043900003C081E001C081E0DF91CF911F910895BA
:1043A000CF92DF92EF92FF921F93CF93DF93909182
:1043B00007069923A9F0873F21F410920706EBDA4C
:1043C00068C16091530570915405BFDF809153051A
:1043D000909154050196909354058093530559C1CB
:1043E0006091DD057091DE056115710509F40CC160
:1043F00088230CF409C1615071097093DE05609344
:10440000DD05A3DF8091DD059091DE05892B09F0A4
:1044100040C180915205882309F43BC1803D09F4D5
:10442000E6C030F48039B1F1803C09F4B9C0E9C08C
:10443000843F09F453C0853F09F4A2C0803E09F0CF
:10444000E0C0C0919605C43108F0DBC0EDE9F5E0AD
:104450009181977080818F77E82EF12C40E8949FAE
:10446000E00CF11C1124D2818C2F1BD1833039F048
:10447000843009F0C6C0C7010E947710C2C08EEF19
:104480008C0F823108F0BDC06D2F6F77A7018C2F84
:104490008BD2B7C0EDE9F5E08081E180F12C50E8E6
:1044A000859FE00CF11C112410919605110F110F3E
:1044B000110FC0E0D0E0CC24C394D12CB6010C2E57
:1044C00002C0660F771F0A94E2F76E21812FE8D1B0
:1044D00021961F5FC830D10589F793C0EDE9F5E05B
:1044E000D081ED2EF12CC1818C2FDBD08F3709F4D8
:1044F00088C08EEF8C0F823178F5E114F10421F041
:104500009BE0E916F104A1F4EC2FE695E695E6951B
:10451000F0E0E15BFA4F2C2F277081E090E002C0C1
:10452000880F991F2A95E2F79081892B808314C008
:10453000EC2FE695E695E695F0E0E15BFA4F2C2F3F
:10454000277081E090E002C0880F991F2A95E2F75A
:104550008095908189238083B7018C2FA8D0D23099
:1045600009F04FC0CE5081E090E002C0880F991F43
:10457000CA95E2F790913703892B8093370341C0A6
:10458000C0919E058EEF8C0F8231D8F5D0919D059C
:104590008C2F87D08130A9F56D2F8C2F81D131C020
:1045A00080919605863068F590919D05911110C017
:1045B00021E030E0A90102C0440F551F8A95E2F7BF
:1045C000CA0180959091370389238093370319C0DE
:1045D00021E030E0A90102C0440F551F8A95E2F79F
:1045E000CA0190913703892B809337030AC0E09169
:1045F0009605E33030F4F0E0E45BFA4F80919D05DE
:1046000080831092520545C0803F28F4982F9F70F8
:1046100090939605807F803E79F038F4803C49F194
:10462000803D39F18039A9F511C0843F79F0853F8B
:10463000B1F0803F71F526C083E090E09093DE05F5
:104640008093DD0580EE8093520523C022E030E0A8
:104650003093DE052093DD05809352051AC082E079
:1046600090E09093DE058093DD0585EF8093520501
:1046700010C021E030E03093DE052093DD0580930B
:10468000520507C081E080930706109254051092EE
:104690005305DF91CF911F91FF90EF90DF90CF9066
:1046A0000895E82FF0E0E75FF94F80810895282F03
:1046B00030E0F901E75FF94F90819F3709F4EFC0CF
:1046C000F901E75FF94F608362307105A1F044F4AE
:1046D00061157105B1F16130710509F478C0089573
:1046E0006430710509F4B9C00CF494C06B307105E5
:1046F00009F44AC008958E50863008F0D0C0F90100
:10470000E55DFD4F2081822F90E0969587959695E7
:10471000879596958795FC01EE0FFF1FE80FF91F0F
:10472000B096277081E090E002C0880F991F2A950B
:10473000E2F78095918198239183928189238283E6
:104740000895F901E55DFD4F8081E82FF0E0F695D1
:10475000E795F695E795F695E7959F01220F331FAC
:10476000E20FF31FB096282F277081E090E002C07F
:10477000880F991F2A95E2F780959181982391835C
:104780009281892382830895F901E55DFD4FE081DF
:104790002E2F277081E090E002C0880F991F2A9584
:1047A000E2F7F0E0F695E795F695E795F695E7954B
:1047B0009F01220F331FE20FF31FB096982F9095A1
:1047C0002181922391839281892B82830895F9011B
:1047D000E55DFD4FE0812E2F277081E090E002C063
:1047E000880F991F2A95E2F7F0E0F695E795F69580
:1047F000E795F695E7959F01220F331FE20FF31F10
:10480000B096982F90952281922392839181892B43
:1048100081830895F901E55DFD4FE0812E2F27701A
:1048200081E090E002C0880F991F2A95E2F7F0E03E
:10483000F695E795F695E795F695E7959F01220F92
:10484000331FE20FF31FB096982F90952281922389
:1048500092839181892B81830895F901E55DFD4F54
:10486000E0812E2F277081E090E002C0880F991F11
:104870002A95E2F7F0E0F695E795F695E795F69537
:10488000E7959F01220F331FE20FF31FB096982F79
:1048900090952281922392839181892B818308951F
:1048A000E82FF0E0E55DFD4FE0819E2F977021E05D
:1048B00030E0A90102C0440F551F9A95E2F7CA01E2
:1048C000F0E0F695E795F695E795F695E7959F0163
:1048D000220F331FE20FF31FB096342F3095228141
:1048E000232322832181242B2183662321F092819B
:1048F000892B828308958281382332830895E82F9B
:10490000F0E0E55DFD4FE0812E2F277081E090E023
:1049100002C0880F991F2A95E2F7F0E0F695E79517
:10492000F695E795F695E7959F01220F331FE20F65
:10493000F31FDF019096982F909511962C91119767
:10494000292311962C93119712962C91129792234A
:1049500012969C9390A1982381E009F480E0089539
:10496000EAE7F0E0908190649083908194FFFDCF1E
:1049700085FF04C090E290937B0005C0EBE7F0E078
:1049800090819F7D90838F71806480937C00EAE7A3
:10499000F0E0808180648083808186FDFDCF8091FE
:1049A00078009091790008958F929F92AF92BF9274
:1049B000CF92DF92EF92FF920F931F93CF93DF93EB
:1049C000C82FD0E0FE01E55DFD4F2081322F37700A
:1049D00081E090E002C0880F991F3A95E2F730E03D
:1049E000369527953695279536952795F901EE0F3B
:1049F000FF1FE20FF31FB096982F9095228192230C
:104A000092839181892B8183FE01E295F295F07F5B
:104A1000FE27E07FFE27E65CFC4F88EC90E0938762
:104A2000828787E390E0958784874115510591F04F
:104A3000FE01E295F295F07FFE27E07FFE27E65C1F
:104A4000FC4F5387428781E090E097878687978362
:104A500086830DC0FE01E295F295F07FFE27E07F90
:104A6000FE27E65CFC4F17861686178216826623A1
:104A700061F0FE01E295F295F07FFE27E07FFE27D0
:104A8000E65CFC4F70E0758764878E010295129595
:104A9000107F1027007F1027065C1C4FD8011A9644
:104AA0002D913C911B97032E000C440B550B0F2EA0
:104AB000F0E9CF2EF0EDDF2EF3E0EF2EF12CF02D0C
:104AC000C701B601F3D5CA01B90161507109810965
:104AD00091091ED420E030E048EC52E47ED34B0133
:104AE0005C01F80164857585072E000C880B990B15
:104AF0000FD49B01AC01C501B401D4D436D5D5D3B4
:104B0000D80111967C936E931A962D913C911B9728
:104B1000032E000C440B550BC701B601C7D5CA01C3
:104B2000B9016150710981099109F2D320E030E0A7
:104B300048EC52E452D36B017C01F80184859585E1
:104B400064E670E0681B790B072E000C880B990B4C
:104B5000DFD39B01AC01C701B601A4D406D5A5D310
:104B6000D80113967C936E9312978D919C91119717
:104B700015969C938E93149719961C921E921897D3
:104B8000C55DDD4F2881822F90E09695879596959B
:104B9000879596958795FC01EE0FFF1F8E0F9F1F3F
:104BA000FC01B09616968D919C911797892B61F018
:104BB0003281277081E090E002C0880F991F2A950A
:104BC000E2F7832B82830CC03281277081E090E072
:104BD00002C0880F991F2A95E2F78095832382836C
:104BE000E8E4F3E040E050E080E090E020813181B3
:104BF0002130310549F4DA01AA0FBB1FA35EB94F7A
:104C00008D939C934F5F5F4F019670968431910511
:104C100069F750937B0440937A04F89410929000C3
:104C2000E1E9F0E01082109295001092940081E08A
:104C300090E09093990080939800808188608083B1
:104C4000808181608083808182608083E1E7F0E001
:104C50008081846080837894DF91CF911F910F9140
:104C6000FF90EF90DF90CF90BF90AF909F908F908C
:104C700008951F920F920FB60F921124AF92BF9218
:104C8000DF92EF92FF920F931F932F933F934F93D7
:104C90005F936F937F938F939F93AF93BF93CF93C4
:104CA000DF93EF93FF930BC080917C0490917D0480
:104CB000019690937D0480937C040E94A3180E9427
:104CC0009A188111F1CF60911D0670911E064091D6
:104CD0007A0450917B04141615060CF0EFC0ADE178
:104CE000B6E0440F551F435E594F9D01AA24A3947B
:104CF000B12CE901899199919E01FC01E295F2950F
:104D0000F07FFE27E07FFE27E65CFC4F0084F18504
:104D1000E02D319709F048C0FC01E55DFD4FD080E2
:104D2000ED2DF0E0F695E795F695E795F695E79584
:104D30007F01EE0CFF1CEE0DFF1DB0967C01EE0C0A
:104D4000FF1CEE0CFF1CEE0CFF1CEE0CFF1C870181
:104D5000065C1C4FE801EE80FF80EF2869F0F280CE
:104D6000CD2DC770850102C0000F111FCA95E2F753
:104D7000E801CF29C2830DC0D281CD2DC770750146
:104D800002C0EE0CFF1CCA95E2F7CE2DC095CD23D4
:104D9000C283FC01E295F295F07FFE27E07FFE27BB
:104DA000E65CFC4F11861086EC01C295D295D07F4F
:104DB000DC27C07FDC27C65CDC4FFB01E295F29567
:104DC000F07FFE27E07FFE27E65CFC4F0C80DD8154
:104DD000C02D0480F581E02DEC17FD070CF0BC011F
:104DE0004217530709F085CF75C08D919D91FC0145
:104DF000E295F295F07FFE27E07FFE27E65CFC4F10
:104E000024813581261B370B35832483232B09F01E
:104E100048C0FC01E295F295F07FFE27E07FFE2777
:104E2000E65CFC4F268137812130310571F4FC01AD
:104E3000E295F295F07FFE27E07FFE27E65CFC4FCF
:104E400022813381358324830DC0FC01E295F295E4
:104E5000F07FFE27E07FFE27E65CFC4F208131815A
:104E600035832483EC01C295D295D07FDC27C07FA7
:104E7000DC27C65CDC4F2E813F81FC01FF27E295D9
:104E8000F295F07FFE27E07FFE27E65CFC4F00876F
:104E90001187902F812F232B11F09E2D8F2D9E8314
:104EA0008F834A175B0709F0A0CF70939900609336
:104EB000980010929500109294001CC06295729513
:104EC000707F7627607F7627FB01E65CFC4F64816C
:104ED0007581EBCF62957295707F7627607F76271C
:104EE000FB01E65CFC4F6481758101E010E0E12C80
:104EF000F12C7BCFFF91EF91DF91CF91BF91AF91DB
:104F00009F918F917F916F915F914F913F912F91E1
:104F10001F910F91FF90EF90DF90BF90AF900F9097
:104F20000FBE0F901F9018952FB7F89460917F04D3
:104F30007091800480918104909182042FBF089524
:104F40001F920F920FB60F9211242F933F938F93BE
:104F50009F93AF93BF9380917F0490918004A09121
:104F60008104B091820430917E0423E0230F2D3719
:104F700020F40196A11DB11D05C026E8230F02965D
:104F8000A11DB11D20937E0480937F049093800423
:104F9000A0938104B093820480918304909184044F
:104FA000A0918504B09186040196A11DB11D809346
:104FB000830490938404A0938504B0938604BF91E6
:104FC000AF919F918F913F912F910F900FBE0F90B6
:104FD0001F90189587E690E00E941A150E945018BD
:104FE0000E9467188823E1F30E949918789484B589
:104FF000826084BD84B5816084BD85B5826085BDD5
:1050000085B5816085BDEEE6F0E0808181608083BA
:10501000E1E8F0E01082808182608083808181609D
:105020008083E0E8F0E0808181608083E1ECF0E063
:10503000808184608083E0ECF0E080818160808307
:1050400087E880937A000E94241A0E94C6100E946A
:105050006A188F3F2FEF920709F0A2D90E94361AE3
:10506000009187041091880401151105D9F04CF0C6
:10507000E9E8F4E0C80187579B4F1192E817F90758
:10508000E1F7109288041092870411271016110678
:105090004CF4C9E8D4E007571B4F899181D9C01758
:1050A000D107D9F741DF6093450670934606809398
:1050B000470690934806C0904906D0904A06E09073
:1050C0004B06F0904C0600911F011091200120E04A
:1050D00030E0DC01CB018C199D09AE09BF0908172E
:1050E00019072A073B0708F0B2CF0C0D1D1D2E1D16
:1050F0003F1D0093490610934A0620934B063093B8
:105100004C060E94C91B0E94541B0E94AB1A9FCFE1
:105110005058BB27AA270ED08BC17CD130F081D14B
:1051200020F031F49F3F11F41EF471C10EF4E095AC
:10513000E7FB67C1E92F8DD180F3BA1762077307C8
:105140008407950718F071F49EF5A5C10EF4E0955B
:105150000B2EBA2FA02D0B01B90190010C01CA0131
:10516000A0011124FF27591B99F0593F50F4503EDC
:1051700068F11A16F040A22F232F342F4427585FCE
:10518000F3CF469537952795A795F0405395C9F7E6
:105190007EF41F16BA0B620B730B840BBAF091509E
:1051A000A1F0FF0FBB1F661F771F881FC2F70EC03D
:1051B000BA0F621F731F841F48F487957795679510
:1051C000B795F7959E3F08F0B3CF9395880F08F0F9
:1051D0009927EE0F9795879508950CD029C121D175
:1051E00040F018D130F021F45F3F19F00AC151119D
:1051F00053C10DC12ED198F39923C9F35523B1F3AF
:10520000951B550BBB27AA2762177307840738F035
:105210009F5F5F4F220F331F441FAA1FA9F333D094
:105220000E2E3AF0E0E830D091505040E695001C48
:10523000CAF729D0FE2F27D0660F771F881FBB1F04
:10524000261737074807AB07B0E809F0BB0B802DDE
:10525000BF01FF2793585F4F2AF09E3F510568F02A
:10526000D0C01AC15F3FECF3983EDCF3869577958A
:105270006795B795F7959F5FC9F7880F911D96952C
:10528000879597F90895E1E0660F771F881FBB1F88
:10529000621773078407BA0720F0621B730B840B35
:1052A000BA0BEE1F88F7E095089504D06894B11109
:1052B000F3C00895D6D088F09F5790F0B92F992762
:1052C000B751A0F0D1F0660F771F881F991F1AF011
:1052D000BA95C9F712C0B13081F0DDD0B1E00895C0
:1052E000DAC0672F782F8827B85F39F0B93FCCF341
:1052F000869577956795B395D9F73EF49095809507
:10530000709561957F4F8F4F9F4F0895E89409C026
:1053100097FB3EF490958095709561957F4F8F4FE8
:105320009F4F9923A9F0F92F96E9BB279395F695FE
:10533000879577956795B795F111F8CFFAF4BB0F7C
:1053400011F460FF1BC06F5F7F4F8F4F9F4F16C0E0
:10535000882311F096E911C0772321F09EE8872F6A
:10536000762F05C0662371F096E8862F70E060E026
:105370002AF09A95660F771F881FDAF7880F96959F
:10538000879597F90895E894F92F96EBFF2381F01C
:10539000121613061406440B9395F6958795779588
:1053A000679557954040FF23B9F71BC0992708958B
:1053B000882351F49850D2F7872B762F652F542FDE
:1053C000432F322F20E0B1F3121613061406440BBC
:1053D00088233AF09A95440F551F661F771F881F40
:1053E000CAF755234AF4440F551F11F460FF04C057
:1053F0006F5F7F4F8F4F9F4F880F9695879597F9D7
:10540000089597F99F6780E870E060E008959FEF46
:1054100080EC089500240A9416161706180609064B
:10542000089500240A94121613061406050608951A
:10543000092E0394000C11F4882352F0BB0F40F4A2
:10544000BF2B11F460FF04C06F5F7F4F8F4F9F4FE2
:10545000089557FD9058440F551F59F05F3F71F064
:105460004795880F97FB991F61F09F3F79F08795CB
:105470000895121613061406551FF2CF4695F1DF54
:1054800008C0161617061806991FF1CF86957105E4
:10549000610508940895E894BB2766277727CB0118
:1054A00097F908950BD0C4CFB5DF28F0BADF18F014
:1054B000952309F0A6CFABCF1124EECFCADFA0F31E
:1054C000959FD1F3950F50E0551F629FF001729F99
:1054D000BB27F00DB11D639FAA27F00DB11DAA1FB8
:1054E000649F6627B00DA11D661F829F2227B00D05
:1054F000A11D621F739FB00DA11D621F839FA00D90
:10550000611D221F749F3327A00D611D231F849FDF
:10551000600D211D822F762F6A2F11249F57504036
:105520008AF0E1F088234AF0EE0FFF1FBB1F661FD1
:10553000771F881F91505040A9F79E3F510570F08A
:1055400060CFAACF5F3FECF3983EDCF3869577956A
:105550006795B795F795E7959F5FC1F7FE2B880F85
:10556000911D9695879597F908957BDFE0F09E371A
:10557000D8F09639B8F49E3848F4672F782F8827EA
:10558000985FF9CF86957795679593959539D0F380
:10559000B62FB1706B0F711D811D20F48795779523
:1055A0006795939502C01CC077CF882371F4772349
:1055B00021F09850872B762F07C0662311F4992786
:1055C0000DC09051862B70E060E02AF09A95660F2E
:1055D000771F881FDAF7880F9695879597F90895B2
:1055E0009F3F31F0915020F4879577956795B79557
:1055F000880F911D9695879597F90895DB018F93F4
:105600009F9385D0BF91AF91A29F800D911DA39FC5
:10561000900DB29F900D11240895AA1BBB1B51E160
:1056200007C0AA1FBB1FA617B70710F0A61BB70B12
:10563000881F991F5A95A9F780959095BC01CD01B7
:10564000089597FB072E16F4009406D077FD08D036
:10565000E4DF07FC05D03EF4909581959F4F0895B7
:10566000709561957F4F0895A1E21A2EAA1BBB1B6E
:10567000FD010DC0AA1FBB1FEE1FFF1FA217B3071E
:10568000E407F50720F0A21BB30BE40BF50B661F34
:10569000771F881F991F1A9469F7609570958095F8
:1056A00090959B01AC01BD01CF010895052E97FB9C
:1056B00016F400940FD057FD05D0D6DF07FC02D0BA
:1056C00046F408C050954095309521953F4F4F4F77
:1056D0005F4F089590958095709561957F4F8F4F9E
:1056E0009F4F0895EE0FFF1F0590F491E02D099450
:1056F000A29FB001B39FC001A39F700D811D112413
:10570000911DB29F700D811D1124911D0895F0DF30
:10571000A59F900DB49F900DA49F800D911D112405
:105720000895B7FFF4CFF3DF821B930B0895DF9347
:10573000CF931F930F939A9DF02D219FF00D8B9D7A
:10574000F00D8A9DE02DF10D039FF00D029FE00DFD
:10575000F11D4E9DE00DF11D5E9DF00D4F9DF00D74
:105760007F936F93BF92AF925F934F93D501C0DF4A
:105770008B01AC01D701BCDFEB01E80FF91FD601AB
:105780001FD02F913F91D601B3DFC60FD71FE81F5F
:10579000F91FAF91BF9114D02F913F91A9DFC60F90
:1057A000D71FE81FF91FD601A3DFE60FF71F9801E7
:1057B000BE01CF0111240F911F91CF91DF91089568
:1057C00097DF460F571FC81FD91F08F43196089559
:1057D000689401C0E8948F929F92CF93DF9305D095
:1057E000DF91CF919F908F90089588249924F401A0
:1057F000E401B0E49F93AA279A158B049C04ED055D
:10580000FE05CF05D007A10798F4AD2FDC2FCF2FD1
:10581000FE2FE92D982C892E982F872F762F652F14
:10582000542F432F322F2227B85031F7BF9127C072
:105830001B2EBF91BB27220F331F441F551F661F0E
:10584000771F881F991F881C991CEE1FFF1FCC1FF4
:10585000DD1FAA1FBB1F8A149B04EC05FD05CE05A6
:10586000DF05A007B10748F08A189B08EC09FD097D
:10587000CE09DF09A00BB10B21601A94E1F62EF4DA
:105880009401AF01BE01CD01000C08950F931F9349
:10589000CF93DF938230910510F482E090E0E091A5
:1058A0004F06F091500620E030E0A0E0B0E03097E5
:1058B00019F1408151810281138148175907C8F0BD
:1058C0008417950769F4109731F012960C9312978C
:1058D00013961C9327C000934F061093500622C0C6
:1058E0002115310519F04217530718F49A01BD012B
:1058F000EF01DF01F801DBCF21153105F9F0281B9D
:10590000390B2430310580F48A819B816115710542
:1059100021F0FB019383828304C09093500680930F
:105920004F06FE01329644C0FE01E20FF31F819341
:10593000919322503109398328833AC020914D0632
:1059400030914E06232B41F4209102013091030146
:1059500030934E0620934D062091000130910101B5
:105960002115310541F42DB73EB740910401509106
:105970000501241B350BE0914D06F0914E06E21710
:10598000F307A0F42E1B3F0B2817390778F0AC0162
:105990004E5F5F4F2417350748F04E0F5F1F50933F
:1059A0004E0640934D068193919302C0E0E0F0E0F3
:1059B000CF01DF91CF911F910F910895CF93DF9386
:1059C000009709F481C0FC01329713821282A091E2
:1059D0004F06B0915006109781F420813181820FDB
:1059E000931F20914D0630914E062817390751F527
:1059F000F0934E06E0934D0667C0ED0120E030E0E5
:105A0000CE17DF0740F44A815B819E0141155105A5
:105A1000F1F0EA01F5CFD383C28340815181840F35
:105A2000951FC817D90759F488819981840F951F4C
:105A30000296918380838A819B819383828321153F
:105A4000310529F4F0935006E0934F063DC0E9017B
:105A5000FB83EA8349915991C40FD51FEC17FD07C9
:105A600061F480819181840F951F0296E9019983E9
:105A70008883828193819B838A83E0E0F0E01296A1
:105A80008D919C911397009719F0FD01DC01F7CFE0
:105A90008D919C9111979D012E5F3F4F820F931F17
:105AA00020914D0630914E062817390769F430973A
:105AB00029F41092500610924F0602C013821282EF
:105AC000B0934E06A0934D06DF91CF910895DC016F
:105AD00001C06D9341505040E0F70895F894FFCF16
